{
  "contractName": "Store",
  "abi": [
    {
      "constant": true,
      "inputs": [
        {
          "name": "personAddress",
          "type": "address"
        }
      ],
      "name": "getWallet",
      "outputs": [
        {
          "name": "",
          "type": "uint256"
        }
      ],
      "payable": false,
      "stateMutability": "view",
      "type": "function"
    },
    {
      "constant": true,
      "inputs": [
        {
          "name": "code",
          "type": "string"
        },
        {
          "name": "consumerAddress",
          "type": "address"
        }
      ],
      "name": "checkMediaForConsumer",
      "outputs": [
        {
          "name": "",
          "type": "bool"
        }
      ],
      "payable": false,
      "stateMutability": "view",
      "type": "function"
    },
    {
      "constant": true,
      "inputs": [
        {
          "name": "creatorAddress",
          "type": "address"
        },
        {
          "name": "index",
          "type": "uint256"
        }
      ],
      "name": "getMedia",
      "outputs": [
        {
          "name": "",
          "type": "string"
        },
        {
          "name": "",
          "type": "bytes32"
        },
        {
          "name": "",
          "type": "uint256"
        }
      ],
      "payable": false,
      "stateMutability": "view",
      "type": "function"
    },
    {
      "constant": true,
      "inputs": [
        {
          "name": "",
          "type": "uint256"
        }
      ],
      "name": "creatorsList",
      "outputs": [
        {
          "name": "",
          "type": "bytes32"
        }
      ],
      "payable": false,
      "stateMutability": "view",
      "type": "function"
    },
    {
      "constant": true,
      "inputs": [
        {
          "name": "code",
          "type": "string"
        }
      ],
      "name": "buy",
      "outputs": [
        {
          "name": "",
          "type": "bool"
        },
        {
          "name": "",
          "type": "string"
        }
      ],
      "payable": false,
      "stateMutability": "view",
      "type": "function"
    },
    {
      "constant": true,
      "inputs": [
        {
          "name": "creatorAddress",
          "type": "address"
        }
      ],
      "name": "getMediaCount",
      "outputs": [
        {
          "name": "",
          "type": "uint256"
        }
      ],
      "payable": false,
      "stateMutability": "view",
      "type": "function"
    },
    {
      "constant": true,
      "inputs": [
        {
          "name": "code",
          "type": "string"
        },
        {
          "name": "mname",
          "type": "bytes32"
        },
        {
          "name": "cost",
          "type": "uint256"
        }
      ],
      "name": "addMedia",
      "outputs": [
        {
          "name": "",
          "type": "bytes32"
        },
        {
          "name": "",
          "type": "uint256"
        }
      ],
      "payable": false,
      "stateMutability": "view",
      "type": "function"
    },
    {
      "constant": true,
      "inputs": [
        {
          "name": "",
          "type": "uint256"
        }
      ],
      "name": "consumersList",
      "outputs": [
        {
          "name": "",
          "type": "bytes32"
        }
      ],
      "payable": false,
      "stateMutability": "view",
      "type": "function"
    },
    {
      "constant": true,
      "inputs": [],
      "name": "allCreators",
      "outputs": [
        {
          "name": "",
          "type": "bytes32[]"
        }
      ],
      "payable": false,
      "stateMutability": "view",
      "type": "function"
    },
    {
      "constant": true,
      "inputs": [],
      "name": "allConsumers",
      "outputs": [
        {
          "name": "",
          "type": "bytes32[]"
        }
      ],
      "payable": false,
      "stateMutability": "view",
      "type": "function"
    },
    {
      "constant": true,
      "inputs": [
        {
          "name": "code",
          "type": "string"
        }
      ],
      "name": "validMedia",
      "outputs": [
        {
          "name": "",
          "type": "bool"
        }
      ],
      "payable": false,
      "stateMutability": "view",
      "type": "function"
    },
    {
      "inputs": [
        {
          "name": "candidateNames1",
          "type": "bytes32[]"
        },
        {
          "name": "candidateNames2",
          "type": "bytes32[]"
        },
        {
          "name": "balance",
          "type": "uint256[]"
        }
      ],
      "payable": false,
      "stateMutability": "nonpayable",
      "type": "constructor"
    },
    {
      "anonymous": false,
      "inputs": [
        {
          "indexed": true,
          "name": "_from",
          "type": "address"
        },
        {
          "indexed": true,
          "name": "_to",
          "type": "address"
        },
        {
          "indexed": false,
          "name": "_value",
          "type": "uint256"
        }
      ],
      "name": "Transfer",
      "type": "event"
    }
  ],
  "bytecode": "0x606060405234156200001057600080fd5b604051620016f5380380620016f583398101604052808051820191906020018051820191906020018051820191905050826005908051906020019062000058929190620000c1565b50816006908051906020019062000071929190620000c1565b506103e8600160003273ffffffffffffffffffffffffffffffffffffffff1673ffffffffffffffffffffffffffffffffffffffff1681526020019081526020016000208190555050505062000141565b82805482825590600052602060002090810192821562000106579160200282015b8281111562000105578251829060001916905591602001919060010190620000e2565b5b50905062000115919062000119565b5090565b6200013e91905b808211156200013a57600081600090555060010162000120565b5090565b90565b6115a480620001516000396000f3006060604052600436106100af576000357c0100000000000000000000000000000000000000000000000000000000900463ffffffff16806304d0a647146100b457806307863d0f146101015780630ec45411146101955780631b422df614610266578063492cc769146102a5578063651cd70f14610386578063770da1e4146103d35780638e41f1f11461046957806392a4280b146104a85780639e12cf6414610512578063f1f89cea1461057c575b600080fd5b34156100bf57600080fd5b6100eb600480803573ffffffffffffffffffffffffffffffffffffffff169060200190919050506105f1565b6040518082815260200191505060405180910390f35b341561010c57600080fd5b61017b600480803590602001908201803590602001908080601f0160208091040260200160405190810160405280939291908181526020018383808284378201915050505050509190803573ffffffffffffffffffffffffffffffffffffffff1690602001909190505061063a565b604051808215151515815260200191505060405180910390f35b34156101a057600080fd5b6101d5600480803573ffffffffffffffffffffffffffffffffffffffff169060200190919080359060200190919050506107e4565b60405180806020018460001916600019168152602001838152602001828103825285818151815260200191508051906020019080838360005b8381101561022957808201518184015260208101905061020e565b50505050905090810190601f1680156102565780820380516001836020036101000a031916815260200191505b5094505050505060405180910390f35b341561027157600080fd5b61028760048080359060200190919050506109e2565b60405180826000191660001916815260200191505060405180910390f35b34156102b057600080fd5b610300600480803590602001908201803590602001908080601f01602080910402602001604051908101604052809392919081815260200183838082843782019150505050505091905050610a06565b604051808315151515815260200180602001828103825283818151815260200191508051906020019080838360005b8381101561034a57808201518184015260208101905061032f565b50505050905090810190601f1680156103775780820380516001836020036101000a031916815260200191505b50935050505060405180910390f35b341561039157600080fd5b6103bd600480803573ffffffffffffffffffffffffffffffffffffffff16906020019091905050610e2f565b6040518082815260200191505060405180910390f35b34156103de57600080fd5b610444600480803590602001908201803590602001908080601f0160208091040260200160405190810160405280939291908181526020018383808284378201915050505050509190803560001916906020019091908035906020019091905050610e7e565b6040518083600019166000191681526020018281526020019250505060405180910390f35b341561047457600080fd5b61048a60048080359060200190919050506111ce565b60405180826000191660001916815260200191505060405180910390f35b34156104b357600080fd5b6104bb6111f2565b6040518080602001828103825283818151815260200191508051906020019060200280838360005b838110156104fe5780820151818401526020810190506104e3565b505050509050019250505060405180910390f35b341561051d57600080fd5b610525611254565b6040518080602001828103825283818151815260200191508051906020019060200280838360005b8381101561056857808201518184015260208101905061054d565b505050509050019250505060405180910390f35b341561058757600080fd5b6105d7600480803590602001908201803590602001908080601f016020809104026020016040519081016040528093929190818152602001838380828437820191505050505050919050506112b6565b604051808215151515815260200191505060405180910390f35b6000600160008373ffffffffffffffffffffffffffffffffffffffff1673ffffffffffffffffffffffffffffffffffffffff168152602001908152602001600020549050919050565b600080600090505b600460008473ffffffffffffffffffffffffffffffffffffffff1673ffffffffffffffffffffffffffffffffffffffff168152602001908152602001600020600001805490508110156107d857836040518082805190602001908083835b6020831015156106c557805182526020820191506020810190506020830392506106a0565b6001836020036101000a038019825116818451168082178552505050505050905001915050604051809103902060001916600460008573ffffffffffffffffffffffffffffffffffffffff1673ffffffffffffffffffffffffffffffffffffffff1681526020019081526020016000206000018281548110151561074557fe5b906000526020600020900160405180828054600181600116156101000203166002900480156107ab5780601f106107895761010080835404028352918201916107ab565b820191906000526020600020905b815481529060010190602001808311610797575b505091505060405180910390206000191614156107cb57600191506107dd565b8080600101915050610642565b600091505b5092915050565b6107ec6113df565b6000806000600360008773ffffffffffffffffffffffffffffffffffffffff1673ffffffffffffffffffffffffffffffffffffffff1681526020019081526020016000206000018581548110151561084057fe5b906000526020600020900190508060028260405180828054600181600116156101000203166002900480156108ac5780601f1061088a5761010080835404028352918201916108ac565b820191906000526020600020905b815481529060010190602001808311610898575b505091505090815260200160405180910390206001015460028360405180828054600181600116156101000203166002900480156109215780601f106108ff576101008083540402835291820191610921565b820191906000526020600020905b81548152906001019060200180831161090d575b5050915050908152602001604051809103902060020154828054600181600116156101000203166002900480601f0160208091040260200160405190810160405280929190818152602001828054600181600116156101000203166002900480156109cd5780601f106109a2576101008083540402835291602001916109cd565b820191906000526020600020905b8154815290600101906020018083116109b057829003601f168201915b50505050509250935093509350509250925092565b6005818154811015156109f157fe5b90600052602060002090016000915090505481565b6000610a106113df565b6000806002856040518082805190602001908083835b602083101515610a4b5780518252602082019150602081019050602083039250610a26565b6001836020036101000a03801982511681845116808217855250505050505090500191505090815260200160405180910390206002015491506002856040518082805190602001908083835b602083101515610abc5780518252602082019150602081019050602083039250610a97565b6001836020036101000a038019825116818451168082178552505050505050905001915050908152602001604051809103902060000160009054906101000a900473ffffffffffffffffffffffffffffffffffffffff1690506002856040518082805190602001908083835b602083101515610b4d5780518252602082019150602081019050602083039250610b28565b6001836020036101000a038019825116818451168082178552505050505050905001915050908152602001604051809103902060020154600160003373ffffffffffffffffffffffffffffffffffffffff1673ffffffffffffffffffffffffffffffffffffffff168152602001908152602001600020541015610bd65760008593509350610e28565b81600160003373ffffffffffffffffffffffffffffffffffffffff1673ffffffffffffffffffffffffffffffffffffffff1681526020019081526020016000206000828254039250508190555081600160008373ffffffffffffffffffffffffffffffffffffffff1673ffffffffffffffffffffffffffffffffffffffff168152602001908152602001600020600082825401925050819055508073ffffffffffffffffffffffffffffffffffffffff163373ffffffffffffffffffffffffffffffffffffffff167fddf252ad1be2c89b69c2b068fc378daa952ba7f163c4a11628f55a4df523b3ef846040518082815260200191505060405180910390a3600460003373ffffffffffffffffffffffffffffffffffffffff1673ffffffffffffffffffffffffffffffffffffffff1681526020019081526020016000206000018054806001018281610d2991906113f3565b916000526020600020900160008790919091509080519060200190610d4f92919061141f565b50506002856040518082805190602001908083835b602083101515610d895780518252602082019150602081019050602083039250610d64565b6001836020036101000a03801982511681845116808217855250505050505090500191505090815260200160405180910390206003018054806001018281610dd1919061149f565b9160005260206000209001600033909190916101000a81548173ffffffffffffffffffffffffffffffffffffffff021916908373ffffffffffffffffffffffffffffffffffffffff16021790555050600185935093505b5050915091565b6000600360008373ffffffffffffffffffffffffffffffffffffffff1673ffffffffffffffffffffffffffffffffffffffff168152602001908152602001600020600001805490509050919050565b600080610e8a856112b6565b1515610e9557600080fd5b600360003373ffffffffffffffffffffffffffffffffffffffff1673ffffffffffffffffffffffffffffffffffffffff1681526020019081526020016000206000018054806001018281610ee991906113f3565b916000526020600020900160008790919091509080519060200190610f0f92919061141f565b505060008054806001018281610f2591906113f3565b916000526020600020900160008790919091509080519060200190610f4b92919061141f565b5050336002866040518082805190602001908083835b602083101515610f865780518252602082019150602081019050602083039250610f61565b6001836020036101000a038019825116818451168082178552505050505050905001915050908152602001604051809103902060000160006101000a81548173ffffffffffffffffffffffffffffffffffffffff021916908373ffffffffffffffffffffffffffffffffffffffff160217905550836002866040518082805190602001908083835b602083101515611033578051825260208201915060208101905060208303925061100e565b6001836020036101000a03801982511681845116808217855250505050505090500191505090815260200160405180910390206001018160001916905550826002866040518082805190602001908083835b6020831015156110aa5780518252602082019150602081019050602083039250611085565b6001836020036101000a0380198251168184511680821785525050505050509050019150509081526020016040518091039020600201819055506002856040518082805190602001908083835b60208310151561111c57805182526020820191506020810190506020830392506110f7565b6001836020036101000a0380198251168184511680821785525050505050509050019150509081526020016040518091039020600101546002866040518082805190602001908083835b60208310151561118b5780518252602082019150602081019050602083039250611166565b6001836020036101000a03801982511681845116808217855250505050505090500191505090815260200160405180910390206002015491509150935093915050565b6006818154811015156111dd57fe5b90600052602060002090016000915090505481565b6111fa6114cb565b600580548060200260200160405190810160405280929190818152602001828054801561124a57602002820191906000526020600020905b81546000191681526020019060010190808311611232575b5050505050905090565b61125c6114cb565b60068054806020026020016040519081016040528092919081815260200182805480156112ac57602002820191906000526020600020905b81546000191681526020019060010190808311611294575b5050505050905090565b600080600090505b6000805490508110156113d457826040518082805190602001908083835b60208310151561130157805182526020820191506020810190506020830392506112dc565b6001836020036101000a03801982511681845116808217855250505050505090500191505060405180910390206000191660008281548110151561134157fe5b906000526020600020900160405180828054600181600116156101000203166002900480156113a75780601f106113855761010080835404028352918201916113a7565b820191906000526020600020905b815481529060010190602001808311611393575b505091505060405180910390206000191614156113c757600091506113d9565b80806001019150506112be565b600191505b50919050565b602060405190810160405280600081525090565b81548183558181151161141a5781836000526020600020918201910161141991906114df565b5b505050565b828054600181600116156101000203166002900490600052602060002090601f016020900481019282601f1061146057805160ff191683800117855561148e565b8280016001018555821561148e579182015b8281111561148d578251825591602001919060010190611472565b5b50905061149b919061150b565b5090565b8154818355818115116114c6578183600052602060002091820191016114c5919061150b565b5b505050565b602060405190810160405280600081525090565b61150891905b8082111561150457600081816114fb9190611530565b506001016114e5565b5090565b90565b61152d91905b80821115611529576000816000905550600101611511565b5090565b90565b50805460018160011615610100020316600290046000825580601f106115565750611575565b601f016020900490600052602060002090810190611574919061150b565b5b505600a165627a7a723058208c1a3c669801ed578a1d9c649c0b704fae3c59580666695ab8603b4ad53522320029",
  "source": "pragma solidity ^0.4.18; //We have to specify what version of the compiler this code will use\n\ncontract Store {\n\n  // We use the struct datatype to store the voter information.\n  struct Media {\n    address creator;\n    bytes32 title;\n    uint price;\n    address[] consumers;\n  }\n\n  struct Creator {\n    string[] creatorMediaList;\n  }\n\n  struct Consumer {\n    string[] consumerMediaList;\n  }\n\n  string[] allMedia;\n\n//  mapping (address => uint) public wallets;\n  mapping (address => uint) wallets;\n  mapping (string => Media) mediaStructs;\n  mapping (address => Creator) creatorStructs;\n  mapping (address => Consumer) consumerStructs;\n  bytes32[] public creatorsList;\n  bytes32[] public consumersList;\n\n  event Transfer(address indexed _from, address indexed _to, uint256 _value);\n\n  /* When the contract is deployed on the blockchain, we will initialize\n   the total number of tokens for sale, cost per token and all the candidates\n   */\n  function Store(bytes32[] candidateNames1, bytes32[] candidateNames2, uint[] balance) public {\n    creatorsList = candidateNames1;\n    consumersList = candidateNames2;\n    wallets[tx.origin] = 1000;\n  }\n\n\n  function buy(string code) view public returns(bool, string) {\n    uint amount = mediaStructs[code].price;\n    address receiver = mediaStructs[code].creator;\n    if (wallets[msg.sender] < mediaStructs[code].price) return (false, code);\n    wallets[msg.sender] -= amount;\n    wallets[receiver] += amount;\n    Transfer(msg.sender, receiver, amount);\n    consumerStructs[msg.sender].consumerMediaList.push(code);\n    mediaStructs[code].consumers.push(msg.sender);\n    return (true, code);\n  }\n\n  function addMedia(string code, bytes32 mname, uint cost) view public returns (bytes32, uint) {\n    require(validMedia(code));\n    creatorStructs[msg.sender].creatorMediaList.push(code);\n    allMedia.push(code);\n    mediaStructs[code].creator = msg.sender;\n    mediaStructs[code].title = mname;\n    mediaStructs[code].price = cost;\n    return (mediaStructs[code].title, mediaStructs[code].price);\n  }\n\n  function allCreators() view public returns (bytes32[]) {\n    return creatorsList;\n  }\n\n  function allConsumers() view public returns (bytes32[]) {\n    return consumersList;\n  }\n\n  function getWallet(address personAddress) view public returns (uint) {\n    return wallets[personAddress];\n  }\n\n\n  function getMedia(address creatorAddress, uint index) view public returns (string, bytes32, uint) {\n    string url = creatorStructs[creatorAddress].creatorMediaList[index];\n    return (url, mediaStructs[url].title, mediaStructs[url].price);\n  }\n\n  function checkMediaForConsumer(string code, address consumerAddress) view public returns (bool) {\n    for (uint i = 0; i < consumerStructs[consumerAddress].consumerMediaList.length; i++){\n      if (keccak256(consumerStructs[consumerAddress].consumerMediaList[i]) == keccak256(code)) {\n        return true;\n      }\n    }\n    return false;\n  }\n\n  function getMediaCount(address creatorAddress) view public returns (uint) {\n    return creatorStructs[creatorAddress].creatorMediaList.length;\n  }\n\n  function validMedia(string code) view public returns (bool) {\n    for(uint i = 0; i < allMedia.length; i++) {\n      if (keccak256(allMedia[i]) == keccak256(code)){\n        return false;\n      }\n    }\n    return true;\n  }\n\n}\n",
  "sourcePath": "/Users/ram/mediaStore/contracts/Store.sol",
  "compiler": {
    "name": "solc",
    "version": "0.4.18+commit.9cf6e910.Emscripten.clang"
  },
  "schemaVersion": "1.0.1",
  "updatedAt": "2018-01-28T02:23:36.637Z"
}