{
  "contractName": "Store",
  "abi": [
    {
      "constant": true,
      "inputs": [
        {
          "name": "personAddress",
          "type": "address"
        }
      ],
      "name": "getWallet",
      "outputs": [
        {
          "name": "",
          "type": "uint256"
        }
      ],
      "payable": false,
      "stateMutability": "view",
      "type": "function"
    },
    {
      "constant": true,
      "inputs": [
        {
          "name": "code",
          "type": "string"
        },
        {
          "name": "consumerAddress",
          "type": "address"
        }
      ],
      "name": "checkMediaForConsumer",
      "outputs": [
        {
          "name": "",
          "type": "bool"
        }
      ],
      "payable": false,
      "stateMutability": "view",
      "type": "function"
    },
    {
      "constant": true,
      "inputs": [
        {
          "name": "creatorAddress",
          "type": "address"
        },
        {
          "name": "index",
          "type": "uint256"
        }
      ],
      "name": "getMedia",
      "outputs": [
        {
          "name": "",
          "type": "string"
        },
        {
          "name": "",
          "type": "bytes32"
        },
        {
          "name": "",
          "type": "uint256"
        }
      ],
      "payable": false,
      "stateMutability": "view",
      "type": "function"
    },
    {
      "constant": true,
      "inputs": [
        {
          "name": "",
          "type": "uint256"
        }
      ],
      "name": "creatorsList",
      "outputs": [
        {
          "name": "",
          "type": "bytes32"
        }
      ],
      "payable": false,
      "stateMutability": "view",
      "type": "function"
    },
    {
      "constant": false,
      "inputs": [
        {
          "name": "code",
          "type": "string"
        }
      ],
      "name": "buy",
      "outputs": [
        {
          "name": "success",
          "type": "bool"
        }
      ],
      "payable": true,
      "stateMutability": "payable",
      "type": "function"
    },
    {
      "constant": true,
      "inputs": [
        {
          "name": "creatorAddress",
          "type": "address"
        }
      ],
      "name": "getMediaCount",
      "outputs": [
        {
          "name": "",
          "type": "uint256"
        }
      ],
      "payable": false,
      "stateMutability": "view",
      "type": "function"
    },
    {
      "constant": true,
      "inputs": [
        {
          "name": "code",
          "type": "string"
        },
        {
          "name": "mname",
          "type": "bytes32"
        },
        {
          "name": "cost",
          "type": "uint256"
        }
      ],
      "name": "addMedia",
      "outputs": [
        {
          "name": "",
          "type": "bytes32"
        },
        {
          "name": "",
          "type": "uint256"
        }
      ],
      "payable": false,
      "stateMutability": "view",
      "type": "function"
    },
    {
      "constant": true,
      "inputs": [
        {
          "name": "",
          "type": "uint256"
        }
      ],
      "name": "consumersList",
      "outputs": [
        {
          "name": "",
          "type": "bytes32"
        }
      ],
      "payable": false,
      "stateMutability": "view",
      "type": "function"
    },
    {
      "constant": true,
      "inputs": [],
      "name": "allCreators",
      "outputs": [
        {
          "name": "",
          "type": "bytes32[]"
        }
      ],
      "payable": false,
      "stateMutability": "view",
      "type": "function"
    },
    {
      "constant": true,
      "inputs": [],
      "name": "allConsumers",
      "outputs": [
        {
          "name": "",
          "type": "bytes32[]"
        }
      ],
      "payable": false,
      "stateMutability": "view",
      "type": "function"
    },
    {
      "constant": true,
      "inputs": [
        {
          "name": "code",
          "type": "string"
        }
      ],
      "name": "validMedia",
      "outputs": [
        {
          "name": "",
          "type": "bool"
        }
      ],
      "payable": false,
      "stateMutability": "view",
      "type": "function"
    },
    {
      "inputs": [
        {
          "name": "candidateNames1",
          "type": "bytes32[]"
        },
        {
          "name": "candidateNames2",
          "type": "bytes32[]"
        },
        {
          "name": "balance",
          "type": "uint256[]"
        }
      ],
      "payable": false,
      "stateMutability": "nonpayable",
      "type": "constructor"
    },
    {
      "anonymous": false,
      "inputs": [
        {
          "indexed": true,
          "name": "_from",
          "type": "address"
        },
        {
          "indexed": true,
          "name": "_to",
          "type": "address"
        },
        {
          "indexed": false,
          "name": "_value",
          "type": "uint256"
        }
      ],
      "name": "Transfer",
      "type": "event"
    }
  ],
  "bytecode": "0x606060405234156200001057600080fd5b604051620016703803806200167083398101604052808051820191906020018051820191906020018051820191905050826005908051906020019062000058929190620000c1565b50816006908051906020019062000071929190620000c1565b506103e8600160003273ffffffffffffffffffffffffffffffffffffffff1673ffffffffffffffffffffffffffffffffffffffff1681526020019081526020016000208190555050505062000141565b82805482825590600052602060002090810192821562000106579160200282015b8281111562000105578251829060001916905591602001919060010190620000e2565b5b50905062000115919062000119565b5090565b6200013e91905b808211156200013a57600081600090555060010162000120565b5090565b90565b61151f80620001516000396000f3006060604052600436106100af576000357c0100000000000000000000000000000000000000000000000000000000900463ffffffff16806304d0a647146100b457806307863d0f146101015780630ec45411146101955780631b422df614610266578063492cc769146102a5578063651cd70f1461030f578063770da1e41461035c5780638e41f1f1146103f257806392a4280b146104315780639e12cf641461049b578063f1f89cea14610505575b600080fd5b34156100bf57600080fd5b6100eb600480803573ffffffffffffffffffffffffffffffffffffffff1690602001909190505061057a565b6040518082815260200191505060405180910390f35b341561010c57600080fd5b61017b600480803590602001908201803590602001908080601f0160208091040260200160405190810160405280939291908181526020018383808284378201915050505050509190803573ffffffffffffffffffffffffffffffffffffffff169060200190919050506105c3565b604051808215151515815260200191505060405180910390f35b34156101a057600080fd5b6101d5600480803573ffffffffffffffffffffffffffffffffffffffff1690602001909190803590602001909190505061076d565b60405180806020018460001916600019168152602001838152602001828103825285818151815260200191508051906020019080838360005b8381101561022957808201518184015260208101905061020e565b50505050905090810190601f1680156102565780820380516001836020036101000a031916815260200191505b5094505050505060405180910390f35b341561027157600080fd5b610287600480803590602001909190505061096b565b60405180826000191660001916815260200191505060405180910390f35b6102f5600480803590602001908201803590602001908080601f0160208091040260200160405190810160405280939291908181526020018383808284378201915050505050509190505061098f565b604051808215151515815260200191505060405180910390f35b341561031a57600080fd5b610346600480803573ffffffffffffffffffffffffffffffffffffffff16906020019091905050610daa565b6040518082815260200191505060405180910390f35b341561036757600080fd5b6103cd600480803590602001908201803590602001908080601f0160208091040260200160405190810160405280939291908181526020018383808284378201915050505050509190803560001916906020019091908035906020019091905050610df9565b6040518083600019166000191681526020018281526020019250505060405180910390f35b34156103fd57600080fd5b6104136004808035906020019091905050611149565b60405180826000191660001916815260200191505060405180910390f35b341561043c57600080fd5b61044461116d565b6040518080602001828103825283818151815260200191508051906020019060200280838360005b8381101561048757808201518184015260208101905061046c565b505050509050019250505060405180910390f35b34156104a657600080fd5b6104ae6111cf565b6040518080602001828103825283818151815260200191508051906020019060200280838360005b838110156104f15780820151818401526020810190506104d6565b505050509050019250505060405180910390f35b341561051057600080fd5b610560600480803590602001908201803590602001908080601f01602080910402602001604051908101604052809392919081815260200183838082843782019150505050505091905050611231565b604051808215151515815260200191505060405180910390f35b6000600160008373ffffffffffffffffffffffffffffffffffffffff1673ffffffffffffffffffffffffffffffffffffffff168152602001908152602001600020549050919050565b600080600090505b600460008473ffffffffffffffffffffffffffffffffffffffff1673ffffffffffffffffffffffffffffffffffffffff1681526020019081526020016000206000018054905081101561076157836040518082805190602001908083835b60208310151561064e5780518252602082019150602081019050602083039250610629565b6001836020036101000a038019825116818451168082178552505050505050905001915050604051809103902060001916600460008573ffffffffffffffffffffffffffffffffffffffff1673ffffffffffffffffffffffffffffffffffffffff168152602001908152602001600020600001828154811015156106ce57fe5b906000526020600020900160405180828054600181600116156101000203166002900480156107345780601f10610712576101008083540402835291820191610734565b820191906000526020600020905b815481529060010190602001808311610720575b505091505060405180910390206000191614156107545760019150610766565b80806001019150506105cb565b600091505b5092915050565b61077561135a565b6000806000600360008773ffffffffffffffffffffffffffffffffffffffff1673ffffffffffffffffffffffffffffffffffffffff168152602001908152602001600020600001858154811015156107c957fe5b906000526020600020900190508060028260405180828054600181600116156101000203166002900480156108355780601f10610813576101008083540402835291820191610835565b820191906000526020600020905b815481529060010190602001808311610821575b505091505090815260200160405180910390206001015460028360405180828054600181600116156101000203166002900480156108aa5780601f106108885761010080835404028352918201916108aa565b820191906000526020600020905b815481529060010190602001808311610896575b5050915050908152602001604051809103902060020154828054600181600116156101000203166002900480601f0160208091040260200160405190810160405280929190818152602001828054600181600116156101000203166002900480156109565780601f1061092b57610100808354040283529160200191610956565b820191906000526020600020905b81548152906001019060200180831161093957829003601f168201915b50505050509250935093509350509250925092565b60058181548110151561097a57fe5b90600052602060002090016000915090505481565b60008060006002846040518082805190602001908083835b6020831015156109cc57805182526020820191506020810190506020830392506109a7565b6001836020036101000a03801982511681845116808217855250505050505090500191505090815260200160405180910390206002015491506002846040518082805190602001908083835b602083101515610a3d5780518252602082019150602081019050602083039250610a18565b6001836020036101000a038019825116818451168082178552505050505050905001915050908152602001604051809103902060000160009054906101000a900473ffffffffffffffffffffffffffffffffffffffff1690506002846040518082805190602001908083835b602083101515610ace5780518252602082019150602081019050602083039250610aa9565b6001836020036101000a038019825116818451168082178552505050505050905001915050908152602001604051809103902060020154600160003373ffffffffffffffffffffffffffffffffffffffff1673ffffffffffffffffffffffffffffffffffffffff168152602001908152602001600020541015610b545760009250610da3565b81600160003373ffffffffffffffffffffffffffffffffffffffff1673ffffffffffffffffffffffffffffffffffffffff1681526020019081526020016000206000828254039250508190555081600160008373ffffffffffffffffffffffffffffffffffffffff1673ffffffffffffffffffffffffffffffffffffffff168152602001908152602001600020600082825401925050819055508073ffffffffffffffffffffffffffffffffffffffff163373ffffffffffffffffffffffffffffffffffffffff167fddf252ad1be2c89b69c2b068fc378daa952ba7f163c4a11628f55a4df523b3ef846040518082815260200191505060405180910390a3600460003373ffffffffffffffffffffffffffffffffffffffff1673ffffffffffffffffffffffffffffffffffffffff1681526020019081526020016000206000018054806001018281610ca7919061136e565b916000526020600020900160008690919091509080519060200190610ccd92919061139a565b50506002846040518082805190602001908083835b602083101515610d075780518252602082019150602081019050602083039250610ce2565b6001836020036101000a03801982511681845116808217855250505050505090500191505090815260200160405180910390206003018054806001018281610d4f919061141a565b9160005260206000209001600033909190916101000a81548173ffffffffffffffffffffffffffffffffffffffff021916908373ffffffffffffffffffffffffffffffffffffffff16021790555050600192505b5050919050565b6000600360008373ffffffffffffffffffffffffffffffffffffffff1673ffffffffffffffffffffffffffffffffffffffff168152602001908152602001600020600001805490509050919050565b600080610e0585611231565b1515610e1057600080fd5b600360003373ffffffffffffffffffffffffffffffffffffffff1673ffffffffffffffffffffffffffffffffffffffff1681526020019081526020016000206000018054806001018281610e64919061136e565b916000526020600020900160008790919091509080519060200190610e8a92919061139a565b505060008054806001018281610ea0919061136e565b916000526020600020900160008790919091509080519060200190610ec692919061139a565b5050336002866040518082805190602001908083835b602083101515610f015780518252602082019150602081019050602083039250610edc565b6001836020036101000a038019825116818451168082178552505050505050905001915050908152602001604051809103902060000160006101000a81548173ffffffffffffffffffffffffffffffffffffffff021916908373ffffffffffffffffffffffffffffffffffffffff160217905550836002866040518082805190602001908083835b602083101515610fae5780518252602082019150602081019050602083039250610f89565b6001836020036101000a03801982511681845116808217855250505050505090500191505090815260200160405180910390206001018160001916905550826002866040518082805190602001908083835b6020831015156110255780518252602082019150602081019050602083039250611000565b6001836020036101000a0380198251168184511680821785525050505050509050019150509081526020016040518091039020600201819055506002856040518082805190602001908083835b6020831015156110975780518252602082019150602081019050602083039250611072565b6001836020036101000a0380198251168184511680821785525050505050509050019150509081526020016040518091039020600101546002866040518082805190602001908083835b60208310151561110657805182526020820191506020810190506020830392506110e1565b6001836020036101000a03801982511681845116808217855250505050505090500191505090815260200160405180910390206002015491509150935093915050565b60068181548110151561115857fe5b90600052602060002090016000915090505481565b611175611446565b60058054806020026020016040519081016040528092919081815260200182805480156111c557602002820191906000526020600020905b815460001916815260200190600101908083116111ad575b5050505050905090565b6111d7611446565b600680548060200260200160405190810160405280929190818152602001828054801561122757602002820191906000526020600020905b8154600019168152602001906001019080831161120f575b5050505050905090565b600080600090505b60008054905081101561134f57826040518082805190602001908083835b60208310151561127c5780518252602082019150602081019050602083039250611257565b6001836020036101000a0380198251168184511680821785525050505050509050019150506040518091039020600019166000828154811015156112bc57fe5b906000526020600020900160405180828054600181600116156101000203166002900480156113225780601f10611300576101008083540402835291820191611322565b820191906000526020600020905b81548152906001019060200180831161130e575b505091505060405180910390206000191614156113425760009150611354565b8080600101915050611239565b600191505b50919050565b602060405190810160405280600081525090565b81548183558181151161139557818360005260206000209182019101611394919061145a565b5b505050565b828054600181600116156101000203166002900490600052602060002090601f016020900481019282601f106113db57805160ff1916838001178555611409565b82800160010185558215611409579182015b828111156114085782518255916020019190600101906113ed565b5b5090506114169190611486565b5090565b815481835581811511611441578183600052602060002091820191016114409190611486565b5b505050565b602060405190810160405280600081525090565b61148391905b8082111561147f576000818161147691906114ab565b50600101611460565b5090565b90565b6114a891905b808211156114a457600081600090555060010161148c565b5090565b90565b50805460018160011615610100020316600290046000825580601f106114d157506114f0565b601f0160209004906000526020600020908101906114ef9190611486565b5b505600a165627a7a7230582013c2d9c5fb3877b4bacd8a04a78516526059cc798b3b785d56425424b235a50e0029",
  "source": "pragma solidity ^0.4.18; //We have to specify what version of the compiler this code will use\n\ncontract Store {\n\n  // We use the struct datatype to store the voter information.\n  struct Media {\n    address creator;\n    bytes32 title;\n    uint price;\n    address[] consumers;\n  }\n\n  struct Creator {\n    string[] creatorMediaList;\n  }\n\n  struct Consumer {\n    string[] consumerMediaList;\n  }\n\n  string[] allMedia;\n\n//  mapping (address => uint) public wallets;\n  mapping (address => uint) wallets;\n  mapping (string => Media) mediaStructs;\n  mapping (address => Creator) creatorStructs;\n  mapping (address => Consumer) consumerStructs;\n  bytes32[] public creatorsList;\n  bytes32[] public consumersList;\n\n  event Transfer(address indexed _from, address indexed _to, uint256 _value);\n\n  /* When the contract is deployed on the blockchain, we will initialize\n   the total number of tokens for sale, cost per token and all the candidates\n   */\n  function Store(bytes32[] candidateNames1, bytes32[] candidateNames2, uint[] balance) public {\n    creatorsList = candidateNames1;\n    consumersList = candidateNames2;\n    wallets[tx.origin] = 1000;\n  }\n\n\n  function buy(string code) payable public returns(bool success) {\n    uint amount = mediaStructs[code].price;\n    address receiver = mediaStructs[code].creator;\n    if (wallets[msg.sender] < mediaStructs[code].price) return false;\n    wallets[msg.sender] -= amount;\n    wallets[receiver] += amount;\n    Transfer(msg.sender, receiver, amount);\n    consumerStructs[msg.sender].consumerMediaList.push(code);\n    mediaStructs[code].consumers.push(msg.sender);\n    return true;\n  }\n\n  function addMedia(string code, bytes32 mname, uint cost) view public returns (bytes32, uint) {\n    require(validMedia(code));\n    creatorStructs[msg.sender].creatorMediaList.push(code);\n    allMedia.push(code);\n    mediaStructs[code].creator = msg.sender;\n    mediaStructs[code].title = mname;\n    mediaStructs[code].price = cost;\n    return (mediaStructs[code].title, mediaStructs[code].price);\n  }\n\n  function allCreators() view public returns (bytes32[]) {\n    return creatorsList;\n  }\n\n  function allConsumers() view public returns (bytes32[]) {\n    return consumersList;\n  }\n\n  function getWallet(address personAddress) view public returns (uint) {\n    return wallets[personAddress];\n  }\n\n\n  function getMedia(address creatorAddress, uint index) view public returns (string, bytes32, uint) {\n    string url = creatorStructs[creatorAddress].creatorMediaList[index];\n    return (url, mediaStructs[url].title, mediaStructs[url].price);\n  }\n\n  function checkMediaForConsumer(string code, address consumerAddress) view public returns (bool) {\n    for (uint i = 0; i < consumerStructs[consumerAddress].consumerMediaList.length; i++){\n      if (keccak256(consumerStructs[consumerAddress].consumerMediaList[i]) == keccak256(code)) {\n        return true;\n      }\n    }\n    return false;\n  }\n\n  function getMediaCount(address creatorAddress) view public returns (uint) {\n    return creatorStructs[creatorAddress].creatorMediaList.length;\n  }\n\n  function validMedia(string code) view public returns (bool) {\n    for(uint i = 0; i < allMedia.length; i++) {\n      if (keccak256(allMedia[i]) == keccak256(code)){\n        return false;\n      }\n    }\n    return true;\n  }\n\n}\n",
  "sourcePath": "/Users/ashleyjain/self_study/github/mediaStore/contracts/Store.sol",
  "compiler": {
    "name": "solc",
    "version": "0.4.18+commit.9cf6e910.Emscripten.clang"
  },
  "schemaVersion": "1.0.1",
  "updatedAt": "2018-01-28T02:38:16.405Z"
}