{
  "contractName": "Store",
  "abi": [
    {
      "constant": true,
      "inputs": [
        {
          "name": "creatorAddress",
          "type": "address"
        }
      ],
      "name": "getWallet",
      "outputs": [
        {
          "name": "",
          "type": "uint256"
        }
      ],
      "payable": false,
      "stateMutability": "view",
      "type": "function"
    },
    {
      "constant": true,
      "inputs": [
        {
          "name": "creatorAddress",
          "type": "address"
        },
        {
          "name": "index",
          "type": "uint256"
        }
      ],
      "name": "getMedia",
      "outputs": [
        {
          "name": "",
          "type": "string"
        },
        {
          "name": "",
          "type": "bytes32"
        },
        {
          "name": "",
          "type": "uint256"
        }
      ],
      "payable": false,
      "stateMutability": "view",
      "type": "function"
    },
    {
      "constant": true,
      "inputs": [
        {
          "name": "",
          "type": "uint256"
        }
      ],
      "name": "creatorsList",
      "outputs": [
        {
          "name": "",
          "type": "bytes32"
        }
      ],
      "payable": false,
      "stateMutability": "view",
      "type": "function"
    },
    {
      "constant": true,
      "inputs": [
        {
          "name": "creatorAddress",
          "type": "address"
        }
      ],
      "name": "getMediaCount",
      "outputs": [
        {
          "name": "",
          "type": "uint256"
        }
      ],
      "payable": false,
      "stateMutability": "view",
      "type": "function"
    },
    {
      "constant": true,
      "inputs": [
        {
          "name": "code",
          "type": "string"
        },
        {
          "name": "mname",
          "type": "bytes32"
        },
        {
          "name": "cost",
          "type": "uint256"
        }
      ],
      "name": "addMedia",
      "outputs": [
        {
          "name": "",
          "type": "bytes32"
        },
        {
          "name": "",
          "type": "uint256"
        }
      ],
      "payable": false,
      "stateMutability": "view",
      "type": "function"
    },
    {
      "constant": true,
      "inputs": [
        {
          "name": "",
          "type": "address"
        }
      ],
      "name": "wallets",
      "outputs": [
        {
          "name": "",
          "type": "uint256"
        }
      ],
      "payable": false,
      "stateMutability": "view",
      "type": "function"
    },
    {
      "constant": true,
      "inputs": [
        {
          "name": "",
          "type": "uint256"
        }
      ],
      "name": "consumersList",
      "outputs": [
        {
          "name": "",
          "type": "bytes32"
        }
      ],
      "payable": false,
      "stateMutability": "view",
      "type": "function"
    },
    {
      "constant": true,
      "inputs": [],
      "name": "allCreators",
      "outputs": [
        {
          "name": "",
          "type": "bytes32[]"
        }
      ],
      "payable": false,
      "stateMutability": "view",
      "type": "function"
    },
    {
      "constant": true,
      "inputs": [],
      "name": "allConsumers",
      "outputs": [
        {
          "name": "",
          "type": "bytes32[]"
        }
      ],
      "payable": false,
      "stateMutability": "view",
      "type": "function"
    },
    {
      "constant": true,
      "inputs": [
        {
          "name": "code",
          "type": "string"
        }
      ],
      "name": "validMedia",
      "outputs": [
        {
          "name": "",
          "type": "bool"
        }
      ],
      "payable": false,
      "stateMutability": "view",
      "type": "function"
    },
    {
      "inputs": [
        {
          "name": "candidateNames1",
          "type": "bytes32[]"
        },
        {
          "name": "candidateNames2",
          "type": "bytes32[]"
        }
      ],
      "payable": false,
      "stateMutability": "nonpayable",
      "type": "constructor"
    }
  ],
  "bytecode": "0x6060604052341561000f57600080fd5b604051610ecd380380610ecd83398101604052808051820191906020018051820191905050816005908051906020019061004a929190610069565b508060069080519060200190610061929190610069565b5050506100e1565b8280548282559060005260206000209081019282156100ab579160200282015b828111156100aa578251829060001916905591602001919060010190610089565b5b5090506100b891906100bc565b5090565b6100de91905b808211156100da5760008160009055506001016100c2565b5090565b90565b610ddd806100f06000396000f3006060604052600436106100a4576000357c0100000000000000000000000000000000000000000000000000000000900463ffffffff16806304d0a647146100a95780630ec45411146100f65780631b422df6146101c7578063651cd70f14610206578063770da1e41461025357806389b08f11146102e95780638e41f1f11461033657806392a4280b146103755780639e12cf64146103df578063f1f89cea14610449575b600080fd5b34156100b457600080fd5b6100e0600480803573ffffffffffffffffffffffffffffffffffffffff169060200190919050506104be565b6040518082815260200191505060405180910390f35b341561010157600080fd5b610136600480803573ffffffffffffffffffffffffffffffffffffffff16906020019091908035906020019091905050610507565b60405180806020018460001916600019168152602001838152602001828103825285818151815260200191508051906020019080838360005b8381101561018a57808201518184015260208101905061016f565b50505050905090810190601f1680156101b75780820380516001836020036101000a031916815260200191505b5094505050505060405180910390f35b34156101d257600080fd5b6101e86004808035906020019091905050610705565b60405180826000191660001916815260200191505060405180910390f35b341561021157600080fd5b61023d600480803573ffffffffffffffffffffffffffffffffffffffff16906020019091905050610729565b6040518082815260200191505060405180910390f35b341561025e57600080fd5b6102c4600480803590602001908201803590602001908080601f0160208091040260200160405190810160405280939291908181526020018383808284378201915050505050509190803560001916906020019091908035906020019091905050610778565b6040518083600019166000191681526020018281526020019250505060405180910390f35b34156102f457600080fd5b610320600480803573ffffffffffffffffffffffffffffffffffffffff16906020019091905050610a1b565b6040518082815260200191505060405180910390f35b341561034157600080fd5b6103576004808035906020019091905050610a33565b60405180826000191660001916815260200191505060405180910390f35b341561038057600080fd5b610388610a57565b6040518080602001828103825283818151815260200191508051906020019060200280838360005b838110156103cb5780820151818401526020810190506103b0565b505050509050019250505060405180910390f35b34156103ea57600080fd5b6103f2610ab9565b6040518080602001828103825283818151815260200191508051906020019060200280838360005b8381101561043557808201518184015260208101905061041a565b505050509050019250505060405180910390f35b341561045457600080fd5b6104a4600480803590602001908201803590602001908080601f01602080910402602001604051908101604052809392919081815260200183838082843782019150505050505091905050610b1b565b604051808215151515815260200191505060405180910390f35b6000600160008373ffffffffffffffffffffffffffffffffffffffff1673ffffffffffffffffffffffffffffffffffffffff168152602001908152602001600020549050919050565b61050f610c44565b6000806000600360008773ffffffffffffffffffffffffffffffffffffffff1673ffffffffffffffffffffffffffffffffffffffff1681526020019081526020016000206000018581548110151561056357fe5b906000526020600020900190508060028260405180828054600181600116156101000203166002900480156105cf5780601f106105ad5761010080835404028352918201916105cf565b820191906000526020600020905b8154815290600101906020018083116105bb575b505091505090815260200160405180910390206000015460028360405180828054600181600116156101000203166002900480156106445780601f10610622576101008083540402835291820191610644565b820191906000526020600020905b815481529060010190602001808311610630575b5050915050908152602001604051809103902060010154828054600181600116156101000203166002900480601f0160208091040260200160405190810160405280929190818152602001828054600181600116156101000203166002900480156106f05780601f106106c5576101008083540402835291602001916106f0565b820191906000526020600020905b8154815290600101906020018083116106d357829003601f168201915b50505050509250935093509350509250925092565b60058181548110151561071457fe5b90600052602060002090016000915090505481565b6000600360008373ffffffffffffffffffffffffffffffffffffffff1673ffffffffffffffffffffffffffffffffffffffff168152602001908152602001600020600001805490509050919050565b60008061078485610b1b565b151561078f57600080fd5b600360003373ffffffffffffffffffffffffffffffffffffffff1673ffffffffffffffffffffffffffffffffffffffff16815260200190815260200160002060000180548060010182816107e39190610c58565b916000526020600020900160008790919091509080519060200190610809929190610c84565b50506000805480600101828161081f9190610c58565b916000526020600020900160008790919091509080519060200190610845929190610c84565b5050836002866040518082805190602001908083835b602083101515610880578051825260208201915060208101905060208303925061085b565b6001836020036101000a03801982511681845116808217855250505050505090500191505090815260200160405180910390206000018160001916905550826002866040518082805190602001908083835b6020831015156108f757805182526020820191506020810190506020830392506108d2565b6001836020036101000a0380198251168184511680821785525050505050509050019150509081526020016040518091039020600101819055506002856040518082805190602001908083835b6020831015156109695780518252602082019150602081019050602083039250610944565b6001836020036101000a0380198251168184511680821785525050505050509050019150509081526020016040518091039020600001546002866040518082805190602001908083835b6020831015156109d857805182526020820191506020810190506020830392506109b3565b6001836020036101000a03801982511681845116808217855250505050505090500191505090815260200160405180910390206001015491509150935093915050565b60016020528060005260406000206000915090505481565b600681815481101515610a4257fe5b90600052602060002090016000915090505481565b610a5f610d04565b6005805480602002602001604051908101604052809291908181526020018280548015610aaf57602002820191906000526020600020905b81546000191681526020019060010190808311610a97575b5050505050905090565b610ac1610d04565b6006805480602002602001604051908101604052809291908181526020018280548015610b1157602002820191906000526020600020905b81546000191681526020019060010190808311610af9575b5050505050905090565b600080600090505b600080549050811015610c3957826040518082805190602001908083835b602083101515610b665780518252602082019150602081019050602083039250610b41565b6001836020036101000a038019825116818451168082178552505050505050905001915050604051809103902060001916600082815481101515610ba657fe5b90600052602060002090016040518082805460018160011615610100020316600290048015610c0c5780601f10610bea576101008083540402835291820191610c0c565b820191906000526020600020905b815481529060010190602001808311610bf8575b50509150506040518091039020600019161415610c2c5760009150610c3e565b8080600101915050610b23565b600191505b50919050565b602060405190810160405280600081525090565b815481835581811511610c7f57818360005260206000209182019101610c7e9190610d18565b5b505050565b828054600181600116156101000203166002900490600052602060002090601f016020900481019282601f10610cc557805160ff1916838001178555610cf3565b82800160010185558215610cf3579182015b82811115610cf2578251825591602001919060010190610cd7565b5b509050610d009190610d44565b5090565b602060405190810160405280600081525090565b610d4191905b80821115610d3d5760008181610d349190610d69565b50600101610d1e565b5090565b90565b610d6691905b80821115610d62576000816000905550600101610d4a565b5090565b90565b50805460018160011615610100020316600290046000825580601f10610d8f5750610dae565b601f016020900490600052602060002090810190610dad9190610d44565b5b505600a165627a7a72305820a045e8c59453c165b94d2e18804143b7bf613cee37fb928247c6146da423ef9b0029",
  "source": "pragma solidity ^0.4.18; //We have to specify what version of the compiler this code will use\n\ncontract Store {\n\n  // We use the struct datatype to store the voter information.\n  struct Media {\n    bytes32 title;\n    uint price;\n    address[] consumers;\n  }\n\n  struct Creator {\n    string[] creatorMediaList;\n  }\n\n  struct Consumer {\n    string[] consumerMediaList;\n  }\n\n  string[] allMedia;\n\n  mapping (address => uint) public wallets;\n  mapping (string => Media) mediaStructs;\n  mapping (address => Creator) creatorStructs;\n  mapping (address => Consumer) consumerStructs;\n  bytes32[] public creatorsList;\n  bytes32[] public consumersList;\n\n  /* When the contract is deployed on the blockchain, we will initialize\n   the total number of tokens for sale, cost per token and all the candidates\n   */\n  function Store(bytes32[] candidateNames1, bytes32[] candidateNames2) public {\n    creatorsList = candidateNames1;\n    consumersList = candidateNames2;\n  }\n\n/*\n  function buy(bytes32 code) payable public {\n    uint req_cost;\n    uint i;\n    bytes32 hashcode;\n    for(i = 0; i < creatorStructs[creatorAddress].creatorMediaList.length; i++) {\n      hashcode = creatorStructs[creatorAddress].creatorMediaList[i];\n      if (creatorStructs[creatorAddress].mediaStructs[hashcode].title == mname) {\n        req_cost = creatorStructs[creatorAddress].mediaStructs[hashcode].price;\n        break;\n      }\n    }\n    require(req_cost == cost);\n    creatorStructs[creatorAddress].mediaStructs[hashcode].audience.push(msg.sender);\n    wallets[creatorAddress] += cost;\n    // return wallets[creatorAddress];\n  }\n  */\n\n  function addMedia(string code, bytes32 mname, uint cost) view public returns (bytes32, uint) {\n    require(validMedia(code));\n    creatorStructs[msg.sender].creatorMediaList.push(code);\n    allMedia.push(code);\n    mediaStructs[code].title = mname;\n    mediaStructs[code].price = cost;\n    return (mediaStructs[code].title, mediaStructs[code].price);\n  }\n\n  function allCreators() view public returns (bytes32[]) {\n    return creatorsList;\n  }\n\n  function allConsumers() view public returns (bytes32[]) {\n    return consumersList;\n  }\n\n  function getWallet(address creatorAddress) view public returns (uint) {\n    return wallets[creatorAddress];\n  }\n\n  function getMedia(address creatorAddress, uint index) view public returns (string, bytes32, uint) {\n    string url = creatorStructs[creatorAddress].creatorMediaList[index];\n    return (url, mediaStructs[url].title, mediaStructs[url].price);\n  }\n\n  function getMediaCount(address creatorAddress) view public returns (uint) {\n    return creatorStructs[creatorAddress].creatorMediaList.length;\n  }\n\n  function validMedia(string code) view public returns (bool) {\n    for(uint i = 0; i < allMedia.length; i++) {\n      if (sha3(allMedia[i]) == sha3(code)){\n        return false;\n      }\n    }\n    return true;\n  }\n\n}\n",
  "sourcePath": "/Users/ashleyjain/self_study/github/mediaStore/contracts/Store.sol",
  "compiler": {
    "name": "solc",
    "version": "0.4.18+commit.9cf6e910.Emscripten.clang"
  },
  "schemaVersion": "1.0.1",
  "updatedAt": "2018-01-27T13:49:30.124Z"
}