{
  "contractName": "Store",
  "abi": [
    {
      "constant": true,
      "inputs": [
        {
          "name": "personAddress",
          "type": "address"
        }
      ],
      "name": "getWallet",
      "outputs": [
        {
          "name": "",
          "type": "uint256"
        }
      ],
      "payable": false,
      "stateMutability": "view",
      "type": "function"
    },
    {
      "constant": true,
      "inputs": [
        {
          "name": "code",
          "type": "string"
        },
        {
          "name": "consumerAddress",
          "type": "address"
        }
      ],
      "name": "checkMediaForConsumer",
      "outputs": [
        {
          "name": "",
          "type": "bool"
        }
      ],
      "payable": false,
      "stateMutability": "view",
      "type": "function"
    },
    {
      "constant": true,
      "inputs": [
        {
          "name": "creatorAddress",
          "type": "address"
        },
        {
          "name": "index",
          "type": "uint256"
        }
      ],
      "name": "getMedia",
      "outputs": [
        {
          "name": "",
          "type": "string"
        },
        {
          "name": "",
          "type": "bytes32"
        },
        {
          "name": "",
          "type": "uint256"
        }
      ],
      "payable": false,
      "stateMutability": "view",
      "type": "function"
    },
    {
      "constant": true,
      "inputs": [
        {
          "name": "",
          "type": "uint256"
        }
      ],
      "name": "creatorsList",
      "outputs": [
        {
          "name": "",
          "type": "bytes32"
        }
      ],
      "payable": false,
      "stateMutability": "view",
      "type": "function"
    },
    {
      "constant": false,
      "inputs": [
        {
          "name": "amount",
          "type": "uint256"
        }
      ],
      "name": "addToWallet",
      "outputs": [
        {
          "name": "success",
          "type": "bool"
        }
      ],
      "payable": true,
      "stateMutability": "payable",
      "type": "function"
    },
    {
      "constant": false,
      "inputs": [
        {
          "name": "code",
          "type": "string"
        }
      ],
      "name": "buy",
      "outputs": [
        {
          "name": "success",
          "type": "bool"
        }
      ],
      "payable": true,
      "stateMutability": "payable",
      "type": "function"
    },
    {
      "constant": true,
      "inputs": [
        {
          "name": "creatorAddress",
          "type": "address"
        }
      ],
      "name": "getMediaCount",
      "outputs": [
        {
          "name": "",
          "type": "uint256"
        }
      ],
      "payable": false,
      "stateMutability": "view",
      "type": "function"
    },
    {
      "constant": true,
      "inputs": [
        {
          "name": "code",
          "type": "string"
        },
        {
          "name": "mname",
          "type": "bytes32"
        },
        {
          "name": "cost",
          "type": "uint256"
        }
      ],
      "name": "addMedia",
      "outputs": [
        {
          "name": "",
          "type": "bytes32"
        },
        {
          "name": "",
          "type": "uint256"
        }
      ],
      "payable": false,
      "stateMutability": "view",
      "type": "function"
    },
    {
      "constant": true,
      "inputs": [
        {
          "name": "",
          "type": "address"
        }
      ],
      "name": "wallets",
      "outputs": [
        {
          "name": "",
          "type": "uint256"
        }
      ],
      "payable": false,
      "stateMutability": "view",
      "type": "function"
    },
    {
      "constant": true,
      "inputs": [
        {
          "name": "",
          "type": "uint256"
        }
      ],
      "name": "consumersList",
      "outputs": [
        {
          "name": "",
          "type": "bytes32"
        }
      ],
      "payable": false,
      "stateMutability": "view",
      "type": "function"
    },
    {
      "constant": true,
      "inputs": [],
      "name": "allCreators",
      "outputs": [
        {
          "name": "",
          "type": "bytes32[]"
        }
      ],
      "payable": false,
      "stateMutability": "view",
      "type": "function"
    },
    {
      "constant": true,
      "inputs": [],
      "name": "allConsumers",
      "outputs": [
        {
          "name": "",
          "type": "bytes32[]"
        }
      ],
      "payable": false,
      "stateMutability": "view",
      "type": "function"
    },
    {
      "constant": true,
      "inputs": [
        {
          "name": "code",
          "type": "string"
        }
      ],
      "name": "validMedia",
      "outputs": [
        {
          "name": "",
          "type": "bool"
        }
      ],
      "payable": false,
      "stateMutability": "view",
      "type": "function"
    },
    {
      "inputs": [
        {
          "name": "candidateNames1",
          "type": "bytes32[]"
        },
        {
          "name": "candidateNames2",
          "type": "bytes32[]"
        },
        {
          "name": "balance",
          "type": "uint256[]"
        }
      ],
      "payable": false,
      "stateMutability": "nonpayable",
      "type": "constructor"
    },
    {
      "anonymous": false,
      "inputs": [
        {
          "indexed": true,
          "name": "_from",
          "type": "address"
        },
        {
          "indexed": true,
          "name": "_to",
          "type": "address"
        },
        {
          "indexed": false,
          "name": "_value",
          "type": "uint256"
        }
      ],
      "name": "Transfer",
      "type": "event"
    }
  ],
  "bytecode": "0x606060405234156200001057600080fd5b6040516200172d3803806200172d833981016040528080518201919060200180518201919060200180518201919050508260059080519060200190620000589291906200007b565b508160069080519060200190620000719291906200007b565b50505050620000fb565b828054828255906000526020600020908101928215620000c0579160200282015b82811115620000bf5782518290600019169055916020019190600101906200009c565b5b509050620000cf9190620000d3565b5090565b620000f891905b80821115620000f4576000816000905550600101620000da565b5090565b90565b611622806200010b6000396000f3006060604052600436106100c5576000357c0100000000000000000000000000000000000000000000000000000000900463ffffffff16806304d0a647146100ca57806307863d0f146101175780630ec45411146101ab5780631b422df61461027c57806348140269146102bb578063492cc769146102eb578063651cd70f14610355578063770da1e4146103a257806389b08f11146104385780638e41f1f11461048557806392a4280b146104c45780639e12cf641461052e578063f1f89cea14610598575b600080fd5b34156100d557600080fd5b610101600480803573ffffffffffffffffffffffffffffffffffffffff1690602001909190505061060d565b6040518082815260200191505060405180910390f35b341561012257600080fd5b610191600480803590602001908201803590602001908080601f0160208091040260200160405190810160405280939291908181526020018383808284378201915050505050509190803573ffffffffffffffffffffffffffffffffffffffff16906020019091905050610656565b604051808215151515815260200191505060405180910390f35b34156101b657600080fd5b6101eb600480803573ffffffffffffffffffffffffffffffffffffffff16906020019091908035906020019091905050610800565b60405180806020018460001916600019168152602001838152602001828103825285818151815260200191508051906020019080838360005b8381101561023f578082015181840152602081019050610224565b50505050905090810190601f16801561026c5780820380516001836020036101000a031916815260200191505b5094505050505060405180910390f35b341561028757600080fd5b61029d60048080359060200190919050506109fe565b60405180826000191660001916815260200191505060405180910390f35b6102d16004808035906020019091905050610a22565b604051808215151515815260200191505060405180910390f35b61033b600480803590602001908201803590602001908080601f01602080910402602001604051908101604052809392919081815260200183838082843782019150505050505091905050610a7a565b604051808215151515815260200191505060405180910390f35b341561036057600080fd5b61038c600480803573ffffffffffffffffffffffffffffffffffffffff16906020019091905050610e95565b6040518082815260200191505060405180910390f35b34156103ad57600080fd5b610413600480803590602001908201803590602001908080601f0160208091040260200160405190810160405280939291908181526020018383808284378201915050505050509190803560001916906020019091908035906020019091905050610ee4565b6040518083600019166000191681526020018281526020019250505060405180910390f35b341561044357600080fd5b61046f600480803573ffffffffffffffffffffffffffffffffffffffff16906020019091905050611234565b6040518082815260200191505060405180910390f35b341561049057600080fd5b6104a6600480803590602001909190505061124c565b60405180826000191660001916815260200191505060405180910390f35b34156104cf57600080fd5b6104d7611270565b6040518080602001828103825283818151815260200191508051906020019060200280838360005b8381101561051a5780820151818401526020810190506104ff565b505050509050019250505060405180910390f35b341561053957600080fd5b6105416112d2565b6040518080602001828103825283818151815260200191508051906020019060200280838360005b83811015610584578082015181840152602081019050610569565b505050509050019250505060405180910390f35b34156105a357600080fd5b6105f3600480803590602001908201803590602001908080601f01602080910402602001604051908101604052809392919081815260200183838082843782019150505050505091905050611334565b604051808215151515815260200191505060405180910390f35b6000600160008373ffffffffffffffffffffffffffffffffffffffff1673ffffffffffffffffffffffffffffffffffffffff168152602001908152602001600020549050919050565b600080600090505b600460008473ffffffffffffffffffffffffffffffffffffffff1673ffffffffffffffffffffffffffffffffffffffff168152602001908152602001600020600001805490508110156107f457836040518082805190602001908083835b6020831015156106e157805182526020820191506020810190506020830392506106bc565b6001836020036101000a038019825116818451168082178552505050505050905001915050604051809103902060001916600460008573ffffffffffffffffffffffffffffffffffffffff1673ffffffffffffffffffffffffffffffffffffffff1681526020019081526020016000206000018281548110151561076157fe5b906000526020600020900160405180828054600181600116156101000203166002900480156107c75780601f106107a55761010080835404028352918201916107c7565b820191906000526020600020905b8154815290600101906020018083116107b3575b505091505060405180910390206000191614156107e757600191506107f9565b808060010191505061065e565b600091505b5092915050565b61080861145d565b6000806000600360008773ffffffffffffffffffffffffffffffffffffffff1673ffffffffffffffffffffffffffffffffffffffff1681526020019081526020016000206000018581548110151561085c57fe5b906000526020600020900190508060028260405180828054600181600116156101000203166002900480156108c85780601f106108a65761010080835404028352918201916108c8565b820191906000526020600020905b8154815290600101906020018083116108b4575b5050915050908152602001604051809103902060010154600283604051808280546001816001161561010002031660029004801561093d5780601f1061091b57610100808354040283529182019161093d565b820191906000526020600020905b815481529060010190602001808311610929575b5050915050908152602001604051809103902060020154828054600181600116156101000203166002900480601f0160208091040260200160405190810160405280929190818152602001828054600181600116156101000203166002900480156109e95780601f106109be576101008083540402835291602001916109e9565b820191906000526020600020905b8154815290600101906020018083116109cc57829003601f168201915b50505050509250935093509350509250925092565b600581815481101515610a0d57fe5b90600052602060002090016000915090505481565b600081600160003373ffffffffffffffffffffffffffffffffffffffff1673ffffffffffffffffffffffffffffffffffffffff1681526020019081526020016000206000828254019250508190555060019050919050565b60008060006002846040518082805190602001908083835b602083101515610ab75780518252602082019150602081019050602083039250610a92565b6001836020036101000a03801982511681845116808217855250505050505090500191505090815260200160405180910390206002015491506002846040518082805190602001908083835b602083101515610b285780518252602082019150602081019050602083039250610b03565b6001836020036101000a038019825116818451168082178552505050505050905001915050908152602001604051809103902060000160009054906101000a900473ffffffffffffffffffffffffffffffffffffffff1690506002846040518082805190602001908083835b602083101515610bb95780518252602082019150602081019050602083039250610b94565b6001836020036101000a038019825116818451168082178552505050505050905001915050908152602001604051809103902060020154600160003373ffffffffffffffffffffffffffffffffffffffff1673ffffffffffffffffffffffffffffffffffffffff168152602001908152602001600020541015610c3f5760009250610e8e565b81600160003373ffffffffffffffffffffffffffffffffffffffff1673ffffffffffffffffffffffffffffffffffffffff1681526020019081526020016000206000828254039250508190555081600160008373ffffffffffffffffffffffffffffffffffffffff1673ffffffffffffffffffffffffffffffffffffffff168152602001908152602001600020600082825401925050819055508073ffffffffffffffffffffffffffffffffffffffff163373ffffffffffffffffffffffffffffffffffffffff167fddf252ad1be2c89b69c2b068fc378daa952ba7f163c4a11628f55a4df523b3ef846040518082815260200191505060405180910390a3600460003373ffffffffffffffffffffffffffffffffffffffff1673ffffffffffffffffffffffffffffffffffffffff1681526020019081526020016000206000018054806001018281610d929190611471565b916000526020600020900160008690919091509080519060200190610db892919061149d565b50506002846040518082805190602001908083835b602083101515610df25780518252602082019150602081019050602083039250610dcd565b6001836020036101000a03801982511681845116808217855250505050505090500191505090815260200160405180910390206003018054806001018281610e3a919061151d565b9160005260206000209001600033909190916101000a81548173ffffffffffffffffffffffffffffffffffffffff021916908373ffffffffffffffffffffffffffffffffffffffff16021790555050600192505b5050919050565b6000600360008373ffffffffffffffffffffffffffffffffffffffff1673ffffffffffffffffffffffffffffffffffffffff168152602001908152602001600020600001805490509050919050565b600080610ef085611334565b1515610efb57600080fd5b600360003373ffffffffffffffffffffffffffffffffffffffff1673ffffffffffffffffffffffffffffffffffffffff1681526020019081526020016000206000018054806001018281610f4f9190611471565b916000526020600020900160008790919091509080519060200190610f7592919061149d565b505060008054806001018281610f8b9190611471565b916000526020600020900160008790919091509080519060200190610fb192919061149d565b5050336002866040518082805190602001908083835b602083101515610fec5780518252602082019150602081019050602083039250610fc7565b6001836020036101000a038019825116818451168082178552505050505050905001915050908152602001604051809103902060000160006101000a81548173ffffffffffffffffffffffffffffffffffffffff021916908373ffffffffffffffffffffffffffffffffffffffff160217905550836002866040518082805190602001908083835b6020831015156110995780518252602082019150602081019050602083039250611074565b6001836020036101000a03801982511681845116808217855250505050505090500191505090815260200160405180910390206001018160001916905550826002866040518082805190602001908083835b60208310151561111057805182526020820191506020810190506020830392506110eb565b6001836020036101000a0380198251168184511680821785525050505050509050019150509081526020016040518091039020600201819055506002856040518082805190602001908083835b602083101515611182578051825260208201915060208101905060208303925061115d565b6001836020036101000a0380198251168184511680821785525050505050509050019150509081526020016040518091039020600101546002866040518082805190602001908083835b6020831015156111f157805182526020820191506020810190506020830392506111cc565b6001836020036101000a03801982511681845116808217855250505050505090500191505090815260200160405180910390206002015491509150935093915050565b60016020528060005260406000206000915090505481565b60068181548110151561125b57fe5b90600052602060002090016000915090505481565b611278611549565b60058054806020026020016040519081016040528092919081815260200182805480156112c857602002820191906000526020600020905b815460001916815260200190600101908083116112b0575b5050505050905090565b6112da611549565b600680548060200260200160405190810160405280929190818152602001828054801561132a57602002820191906000526020600020905b81546000191681526020019060010190808311611312575b5050505050905090565b600080600090505b60008054905081101561145257826040518082805190602001908083835b60208310151561137f578051825260208201915060208101905060208303925061135a565b6001836020036101000a0380198251168184511680821785525050505050509050019150506040518091039020600019166000828154811015156113bf57fe5b906000526020600020900160405180828054600181600116156101000203166002900480156114255780601f10611403576101008083540402835291820191611425565b820191906000526020600020905b815481529060010190602001808311611411575b505091505060405180910390206000191614156114455760009150611457565b808060010191505061133c565b600191505b50919050565b602060405190810160405280600081525090565b81548183558181151161149857818360005260206000209182019101611497919061155d565b5b505050565b828054600181600116156101000203166002900490600052602060002090601f016020900481019282601f106114de57805160ff191683800117855561150c565b8280016001018555821561150c579182015b8281111561150b5782518255916020019190600101906114f0565b5b5090506115199190611589565b5090565b815481835581811511611544578183600052602060002091820191016115439190611589565b5b505050565b602060405190810160405280600081525090565b61158691905b80821115611582576000818161157991906115ae565b50600101611563565b5090565b90565b6115ab91905b808211156115a757600081600090555060010161158f565b5090565b90565b50805460018160011615610100020316600290046000825580601f106115d457506115f3565b601f0160209004906000526020600020908101906115f29190611589565b5b505600a165627a7a72305820ddff050a31f790f886d3da0fb30e60966d216fa0aec59cb2761b678a0c629a140029",
  "source": "pragma solidity ^0.4.18; //We have to specify what version of the compiler this code will use\n\ncontract Store {\n\n  // We use the struct datatype to store the voter information.\n  struct Media {\n    address creator;\n    bytes32 title;\n    uint price;\n    address[] consumers;\n  }\n\n  struct Creator {\n    string[] creatorMediaList;\n  }\n\n  struct Consumer {\n    string[] consumerMediaList;\n  }\n\n  string[] allMedia;\n\n  mapping (address => uint) public wallets;\n  mapping (string => Media) mediaStructs;\n  mapping (address => Creator) creatorStructs;\n  mapping (address => Consumer) consumerStructs;\n  bytes32[] public creatorsList;\n  bytes32[] public consumersList;\n\n  event Transfer(address indexed _from, address indexed _to, uint256 _value);\n\n  /* When the contract is deployed on the blockchain, we will initialize\n   the total number of tokens for sale, cost per token and all the candidates\n   */\n  function Store(bytes32[] candidateNames1, bytes32[] candidateNames2, uint[] balance) public {\n    creatorsList = candidateNames1;\n    consumersList = candidateNames2;\n  }\n\n\n  function buy(string code) payable public returns(bool success) {\n    uint amount = mediaStructs[code].price;\n    address receiver = mediaStructs[code].creator;\n    if (wallets[msg.sender] < mediaStructs[code].price) return false;\n    wallets[msg.sender] -= amount;\n    wallets[receiver] += amount;\n    Transfer(msg.sender, receiver, amount);\n    consumerStructs[msg.sender].consumerMediaList.push(code);\n    mediaStructs[code].consumers.push(msg.sender);\n    return true;\n  }\n\n  function addMedia(string code, bytes32 mname, uint cost) view public returns (bytes32, uint) {\n    require(validMedia(code));\n    creatorStructs[msg.sender].creatorMediaList.push(code);\n    allMedia.push(code);\n    mediaStructs[code].creator = msg.sender;\n    mediaStructs[code].title = mname;\n    mediaStructs[code].price = cost;\n    return (mediaStructs[code].title, mediaStructs[code].price);\n  }\n\n  function allCreators() view public returns (bytes32[]) {\n    return creatorsList;\n  }\n\n  function allConsumers() view public returns (bytes32[]) {\n    return consumersList;\n  }\n\n  function getWallet(address personAddress) view public returns (uint) {\n    return wallets[personAddress];\n  }\n\n\n  function getMedia(address creatorAddress, uint index) view public returns (string, bytes32, uint) {\n    string url = creatorStructs[creatorAddress].creatorMediaList[index];\n    return (url, mediaStructs[url].title, mediaStructs[url].price);\n  }\n\n  function checkMediaForConsumer(string code, address consumerAddress) view public returns (bool) {\n    for (uint i = 0; i < consumerStructs[consumerAddress].consumerMediaList.length; i++){\n      if (keccak256(consumerStructs[consumerAddress].consumerMediaList[i]) == keccak256(code)) {\n        return true;\n      }\n    }\n    return false;\n  }\n\n  function getMediaCount(address creatorAddress) view public returns (uint) {\n    return creatorStructs[creatorAddress].creatorMediaList.length;\n  }\n\n  function addToWallet(uint amount) payable public returns (bool success) {\n    wallets[msg.sender] += amount;\n    return true;\n  }\n\n  function validMedia(string code) view public returns (bool) {\n    for(uint i = 0; i < allMedia.length; i++) {\n      if (keccak256(allMedia[i]) == keccak256(code)){\n        return false;\n      }\n    }\n    return true;\n  }\n\n}\n",
  "sourcePath": "/Users/ram/mediaStore/contracts/Store.sol",
  "compiler": {
    "name": "solc",
    "version": "0.4.18+commit.9cf6e910.Emscripten.clang"
  },
  "schemaVersion": "1.0.1",
  "updatedAt": "2018-01-28T03:12:13.674Z"
}