{
  "contractName": "Store",
  "abi": [
    {
      "constant": true,
      "inputs": [
        {
          "name": "creatorAddress",
          "type": "address"
        }
      ],
      "name": "getWallet",
      "outputs": [
        {
          "name": "",
          "type": "uint256"
        }
      ],
      "payable": false,
      "stateMutability": "view",
      "type": "function"
    },
    {
      "constant": true,
      "inputs": [
        {
          "name": "creatorAddress",
          "type": "address"
        },
        {
          "name": "index",
          "type": "uint256"
        }
      ],
      "name": "getMedia",
      "outputs": [
        {
          "name": "",
          "type": "string"
        },
        {
          "name": "",
          "type": "bytes32"
        },
        {
          "name": "",
          "type": "uint256"
        }
      ],
      "payable": false,
      "stateMutability": "view",
      "type": "function"
    },
    {
      "constant": true,
      "inputs": [
        {
          "name": "",
          "type": "uint256"
        }
      ],
      "name": "creatorsList",
      "outputs": [
        {
          "name": "",
          "type": "bytes32"
        }
      ],
      "payable": false,
      "stateMutability": "view",
      "type": "function"
    },
    {
      "constant": true,
      "inputs": [
        {
          "name": "creatorAddress",
          "type": "address"
        }
      ],
      "name": "getMediaCount",
      "outputs": [
        {
          "name": "",
          "type": "uint256"
        }
      ],
      "payable": false,
      "stateMutability": "view",
      "type": "function"
    },
    {
      "constant": true,
      "inputs": [
        {
          "name": "code",
          "type": "string"
        },
        {
          "name": "mname",
          "type": "bytes32"
        },
        {
          "name": "cost",
          "type": "uint256"
        }
      ],
      "name": "addMedia",
      "outputs": [
        {
          "name": "",
          "type": "bytes32"
        },
        {
          "name": "",
          "type": "uint256"
        }
      ],
      "payable": false,
      "stateMutability": "view",
      "type": "function"
    },
    {
      "constant": true,
      "inputs": [
        {
          "name": "",
          "type": "address"
        }
      ],
      "name": "wallets",
      "outputs": [
        {
          "name": "",
          "type": "uint256"
        }
      ],
      "payable": false,
      "stateMutability": "view",
      "type": "function"
    },
    {
      "constant": true,
      "inputs": [
        {
          "name": "",
          "type": "uint256"
        }
      ],
      "name": "consumersList",
      "outputs": [
        {
          "name": "",
          "type": "bytes32"
        }
      ],
      "payable": false,
      "stateMutability": "view",
      "type": "function"
    },
    {
      "constant": true,
      "inputs": [],
      "name": "allCreators",
      "outputs": [
        {
          "name": "",
          "type": "bytes32[]"
        }
      ],
      "payable": false,
      "stateMutability": "view",
      "type": "function"
    },
    {
      "constant": true,
      "inputs": [],
      "name": "allConsumers",
      "outputs": [
        {
          "name": "",
          "type": "bytes32[]"
        }
      ],
      "payable": false,
      "stateMutability": "view",
      "type": "function"
    },
    {
      "inputs": [
        {
          "name": "candidateNames1",
          "type": "bytes32[]"
        },
        {
          "name": "candidateNames2",
          "type": "bytes32[]"
        }
      ],
      "payable": false,
      "stateMutability": "nonpayable",
      "type": "constructor"
    }
  ],
  "bytecode": "0x6060604052341561000f57600080fd5b604051610cd3380380610cd383398101604052808051820191906020018051820191905050816004908051906020019061004a929190610069565b508060059080519060200190610061929190610069565b5050506100e1565b8280548282559060005260206000209081019282156100ab579160200282015b828111156100aa578251829060001916905591602001919060010190610089565b5b5090506100b891906100bc565b5090565b6100de91905b808211156100da5760008160009055506001016100c2565b5090565b90565b610be3806100f06000396000f300606060405260043610610099576000357c0100000000000000000000000000000000000000000000000000000000900463ffffffff16806304d0a6471461009e5780630ec45411146100eb5780631b422df6146101bc578063651cd70f146101fb578063770da1e41461024857806389b08f11146102de5780638e41f1f11461032b57806392a4280b1461036a5780639e12cf64146103d4575b600080fd5b34156100a957600080fd5b6100d5600480803573ffffffffffffffffffffffffffffffffffffffff1690602001909190505061043e565b6040518082815260200191505060405180910390f35b34156100f657600080fd5b61012b600480803573ffffffffffffffffffffffffffffffffffffffff16906020019091908035906020019091905050610486565b60405180806020018460001916600019168152602001838152602001828103825285818151815260200191508051906020019080838360005b8381101561017f578082015181840152602081019050610164565b50505050905090810190601f1680156101ac5780820380516001836020036101000a031916815260200191505b5094505050505060405180910390f35b34156101c757600080fd5b6101dd6004808035906020019091905050610684565b60405180826000191660001916815260200191505060405180910390f35b341561020657600080fd5b610232600480803573ffffffffffffffffffffffffffffffffffffffff169060200190919050506106a8565b6040518082815260200191505060405180910390f35b341561025357600080fd5b6102b9600480803590602001908201803590602001908080601f01602080910402602001604051908101604052809392919081815260200183838082843782019150505050505091908035600019169060200190919080359060200190919050506106f7565b6040518083600019166000191681526020018281526020019250505060405180910390f35b34156102e957600080fd5b610315600480803573ffffffffffffffffffffffffffffffffffffffff1690602001909190505061094a565b6040518082815260200191505060405180910390f35b341561033657600080fd5b61034c6004808035906020019091905050610962565b60405180826000191660001916815260200191505060405180910390f35b341561037557600080fd5b61037d610986565b6040518080602001828103825283818151815260200191508051906020019060200280838360005b838110156103c05780820151818401526020810190506103a5565b505050509050019250505060405180910390f35b34156103df57600080fd5b6103e76109e8565b6040518080602001828103825283818151815260200191508051906020019060200280838360005b8381101561042a57808201518184015260208101905061040f565b505050509050019250505060405180910390f35b60008060008373ffffffffffffffffffffffffffffffffffffffff1673ffffffffffffffffffffffffffffffffffffffff168152602001908152602001600020549050919050565b61048e610a4a565b6000806000600260008773ffffffffffffffffffffffffffffffffffffffff1673ffffffffffffffffffffffffffffffffffffffff168152602001908152602001600020600001858154811015156104e257fe5b9060005260206000209001905080600182604051808280546001816001161561010002031660029004801561054e5780601f1061052c57610100808354040283529182019161054e565b820191906000526020600020905b81548152906001019060200180831161053a575b505091505090815260200160405180910390206000015460018360405180828054600181600116156101000203166002900480156105c35780601f106105a15761010080835404028352918201916105c3565b820191906000526020600020905b8154815290600101906020018083116105af575b5050915050908152602001604051809103902060010154828054600181600116156101000203166002900480601f01602080910402602001604051908101604052809291908181526020018280546001816001161561010002031660029004801561066f5780601f106106445761010080835404028352916020019161066f565b820191906000526020600020905b81548152906001019060200180831161065257829003601f168201915b50505050509250935093509350509250925092565b60048181548110151561069357fe5b90600052602060002090016000915090505481565b6000600260008373ffffffffffffffffffffffffffffffffffffffff1673ffffffffffffffffffffffffffffffffffffffff168152602001908152602001600020600001805490509050919050565b600080600260003373ffffffffffffffffffffffffffffffffffffffff1673ffffffffffffffffffffffffffffffffffffffff168152602001908152602001600020600001805480600101828161074e9190610a5e565b916000526020600020900160008790919091509080519060200190610774929190610a8a565b5050836001866040518082805190602001908083835b6020831015156107af578051825260208201915060208101905060208303925061078a565b6001836020036101000a03801982511681845116808217855250505050505090500191505090815260200160405180910390206000018160001916905550826001866040518082805190602001908083835b6020831015156108265780518252602082019150602081019050602083039250610801565b6001836020036101000a0380198251168184511680821785525050505050509050019150509081526020016040518091039020600101819055506001856040518082805190602001908083835b6020831015156108985780518252602082019150602081019050602083039250610873565b6001836020036101000a0380198251168184511680821785525050505050509050019150509081526020016040518091039020600001546001866040518082805190602001908083835b60208310151561090757805182526020820191506020810190506020830392506108e2565b6001836020036101000a03801982511681845116808217855250505050505090500191505090815260200160405180910390206001015491509150935093915050565b60006020528060005260406000206000915090505481565b60058181548110151561097157fe5b90600052602060002090016000915090505481565b61098e610b0a565b60048054806020026020016040519081016040528092919081815260200182805480156109de57602002820191906000526020600020905b815460001916815260200190600101908083116109c6575b5050505050905090565b6109f0610b0a565b6005805480602002602001604051908101604052809291908181526020018280548015610a4057602002820191906000526020600020905b81546000191681526020019060010190808311610a28575b5050505050905090565b602060405190810160405280600081525090565b815481835581811511610a8557818360005260206000209182019101610a849190610b1e565b5b505050565b828054600181600116156101000203166002900490600052602060002090601f016020900481019282601f10610acb57805160ff1916838001178555610af9565b82800160010185558215610af9579182015b82811115610af8578251825591602001919060010190610add565b5b509050610b069190610b4a565b5090565b602060405190810160405280600081525090565b610b4791905b80821115610b435760008181610b3a9190610b6f565b50600101610b24565b5090565b90565b610b6c91905b80821115610b68576000816000905550600101610b50565b5090565b90565b50805460018160011615610100020316600290046000825580601f10610b955750610bb4565b601f016020900490600052602060002090810190610bb39190610b4a565b5b505600a165627a7a72305820035d602e9ca1c6d27ed3d7910dfea125fcefa76997ceb5f00362af95adc94af10029",
  "source": "pragma solidity ^0.4.18; //We have to specify what version of the compiler this code will use\n\ncontract Store {\n\n  // We use the struct datatype to store the voter information.\n  struct Media {\n    bytes32 title;\n    uint price;\n  }\n\n  struct Creator {\n    string[] mediaList;\n  }\n\n  struct Consumer {\n    bytes32[] Media;\n  }\n\n  mapping (address => uint) public wallets;\n  mapping (string => Media) mediaStructs;\n  mapping (address => Creator) creatorStructs;\n  mapping (address => Consumer) consumerStructs;\n  bytes32[] public creatorsList;\n  bytes32[] public consumersList;\n\n  /* When the contract is deployed on the blockchain, we will initialize\n   the total number of tokens for sale, cost per token and all the candidates\n   */\n  function Store(bytes32[] candidateNames1, bytes32[] candidateNames2) public {\n    creatorsList = candidateNames1;\n    consumersList = candidateNames2;\n  }\n\n/*\n  function buy(bytes32 code) payable public {\n    uint req_cost;\n    uint i;\n    bytes32 hashcode;\n    for(i = 0; i < creatorStructs[creatorAddress].mediaList.length; i++) {\n      hashcode = creatorStructs[creatorAddress].mediaList[i];\n      if (creatorStructs[creatorAddress].mediaStructs[hashcode].title == mname) {\n        req_cost = creatorStructs[creatorAddress].mediaStructs[hashcode].price;\n        break;\n      }\n    }\n    require(req_cost == cost);\n    creatorStructs[creatorAddress].mediaStructs[hashcode].audience.push(msg.sender);\n    wallets[creatorAddress] += cost;\n    // return wallets[creatorAddress];\n  }\n  */\n\n  function addMedia(string code, bytes32 mname, uint cost) view public returns (bytes32, uint) {\n    creatorStructs[msg.sender].mediaList.push(code);\n    mediaStructs[code].title = mname;\n    mediaStructs[code].price = cost;\n    return (mediaStructs[code].title, mediaStructs[code].price);\n  }\n\n  function allCreators() view public returns (bytes32[]) {\n    return creatorsList;\n  }\n\n  function allConsumers() view public returns (bytes32[]) {\n    return consumersList;\n  }\n\n  function getWallet(address creatorAddress) view public returns (uint) {\n    return wallets[creatorAddress];\n  }\n\n  function getMedia(address creatorAddress, uint index) view public returns (string, bytes32, uint) {\n    string url = creatorStructs[creatorAddress].mediaList[index];\n    return (url, mediaStructs[url].title, mediaStructs[url].price);\n  }\n\n  function getMediaCount(address creatorAddress) view public returns (uint) {\n    return creatorStructs[creatorAddress].mediaList.length;\n  }\n\n}\n",
  "sourcePath": "/Users/ram/mediaStore/contracts/Store.sol",
  "compiler": {
    "name": "solc",
    "version": "0.4.18+commit.9cf6e910.Emscripten.clang"
  },
  "schemaVersion": "1.0.1",
  "updatedAt": "2018-01-27T10:13:21.281Z"
}