{
  "contractName": "Store",
  "abi": [
    {
      "constant": true,
      "inputs": [
        {
          "name": "code",
          "type": "string"
        },
        {
          "name": "consumerAddress",
          "type": "address"
        }
      ],
      "name": "checkMediaForConsumer",
      "outputs": [
        {
          "name": "",
          "type": "bool"
        }
      ],
      "payable": false,
      "stateMutability": "view",
      "type": "function"
    },
    {
      "constant": true,
      "inputs": [
        {
          "name": "creatorAddress",
          "type": "address"
        },
        {
          "name": "index",
          "type": "uint256"
        }
      ],
      "name": "getMedia",
      "outputs": [
        {
          "name": "",
          "type": "string"
        },
        {
          "name": "",
          "type": "bytes32"
        },
        {
          "name": "",
          "type": "uint256"
        }
      ],
      "payable": false,
      "stateMutability": "view",
      "type": "function"
    },
    {
      "constant": true,
      "inputs": [
        {
          "name": "",
          "type": "uint256"
        }
      ],
      "name": "creatorsList",
      "outputs": [
        {
          "name": "",
          "type": "bytes32"
        }
      ],
      "payable": false,
      "stateMutability": "view",
      "type": "function"
    },
    {
      "constant": false,
      "inputs": [
        {
          "name": "code",
          "type": "string"
        }
      ],
      "name": "buy",
      "outputs": [
        {
          "name": "success",
          "type": "bool"
        }
      ],
      "payable": true,
      "stateMutability": "payable",
      "type": "function"
    },
    {
      "constant": true,
      "inputs": [
        {
          "name": "creatorAddress",
          "type": "address"
        }
      ],
      "name": "getMediaCount",
      "outputs": [
        {
          "name": "",
          "type": "uint256"
        }
      ],
      "payable": false,
      "stateMutability": "view",
      "type": "function"
    },
    {
      "constant": true,
      "inputs": [
        {
          "name": "code",
          "type": "string"
        },
        {
          "name": "mname",
          "type": "bytes32"
        },
        {
          "name": "cost",
          "type": "uint256"
        }
      ],
      "name": "addMedia",
      "outputs": [
        {
          "name": "",
          "type": "bytes32"
        },
        {
          "name": "",
          "type": "uint256"
        }
      ],
      "payable": false,
      "stateMutability": "view",
      "type": "function"
    },
    {
      "constant": true,
      "inputs": [
        {
          "name": "",
          "type": "uint256"
        }
      ],
      "name": "consumersList",
      "outputs": [
        {
          "name": "",
          "type": "bytes32"
        }
      ],
      "payable": false,
      "stateMutability": "view",
      "type": "function"
    },
    {
      "constant": true,
      "inputs": [],
      "name": "allCreators",
      "outputs": [
        {
          "name": "",
          "type": "bytes32[]"
        }
      ],
      "payable": false,
      "stateMutability": "view",
      "type": "function"
    },
    {
      "constant": true,
      "inputs": [],
      "name": "allConsumers",
      "outputs": [
        {
          "name": "",
          "type": "bytes32[]"
        }
      ],
      "payable": false,
      "stateMutability": "view",
      "type": "function"
    },
    {
      "constant": true,
      "inputs": [
        {
          "name": "code",
          "type": "string"
        }
      ],
      "name": "validMedia",
      "outputs": [
        {
          "name": "",
          "type": "bool"
        }
      ],
      "payable": false,
      "stateMutability": "view",
      "type": "function"
    },
    {
      "inputs": [
        {
          "name": "candidateNames1",
          "type": "bytes32[]"
        },
        {
          "name": "candidateNames2",
          "type": "bytes32[]"
        },
        {
          "name": "balance",
          "type": "uint256[]"
        }
      ],
      "payable": false,
      "stateMutability": "nonpayable",
      "type": "constructor"
    },
    {
      "anonymous": false,
      "inputs": [
        {
          "indexed": true,
          "name": "_from",
          "type": "address"
        },
        {
          "indexed": true,
          "name": "_to",
          "type": "address"
        },
        {
          "indexed": false,
          "name": "_value",
          "type": "uint256"
        }
      ],
      "name": "Transfer",
      "type": "event"
    }
  ],
  "bytecode": "0x606060405234156200001057600080fd5b604051620015b0380380620015b08339810160405280805182019190602001805182019190602001805182019190505082600590805190602001906200005892919062000094565b5081600690805190602001906200007192919062000094565b5080600190805190602001906200008a929190620000ec565b505050506200018e565b828054828255906000526020600020908101928215620000d9579160200282015b82811115620000d8578251829060001916905591602001919060010190620000b5565b5b509050620000e891906200013e565b5090565b8280548282559060005260206000209081019282156200012b579160200282015b828111156200012a5782518255916020019190600101906200010d565b5b5090506200013a919062000166565b5090565b6200016391905b808211156200015f57600081600090555060010162000145565b5090565b90565b6200018b91905b80821115620001875760008160009055506001016200016d565b5090565b90565b611412806200019e6000396000f3006060604052600436106100a4576000357c0100000000000000000000000000000000000000000000000000000000900463ffffffff16806307863d0f146100a95780630ec454111461013d5780631b422df61461020e578063492cc7691461024d578063651cd70f146102b7578063770da1e4146103045780638e41f1f11461039a57806392a4280b146103d95780639e12cf6414610443578063f1f89cea146104ad575b600080fd5b34156100b457600080fd5b610123600480803590602001908201803590602001908080601f0160208091040260200160405190810160405280939291908181526020018383808284378201915050505050509190803573ffffffffffffffffffffffffffffffffffffffff16906020019091905050610522565b604051808215151515815260200191505060405180910390f35b341561014857600080fd5b61017d600480803573ffffffffffffffffffffffffffffffffffffffff169060200190919080359060200190919050506106cc565b60405180806020018460001916600019168152602001838152602001828103825285818151815260200191508051906020019080838360005b838110156101d15780820151818401526020810190506101b6565b50505050905090810190601f1680156101fe5780820380516001836020036101000a031916815260200191505b5094505050505060405180910390f35b341561021957600080fd5b61022f60048080359060200190919050506108ca565b60405180826000191660001916815260200191505060405180910390f35b61029d600480803590602001908201803590602001908080601f016020809104026020016040519081016040528093929190818152602001838380828437820191505050505050919050506108ee565b604051808215151515815260200191505060405180910390f35b34156102c257600080fd5b6102ee600480803573ffffffffffffffffffffffffffffffffffffffff16906020019091905050610c9d565b6040518082815260200191505060405180910390f35b341561030f57600080fd5b610375600480803590602001908201803590602001908080601f0160208091040260200160405190810160405280939291908181526020018383808284378201915050505050509190803560001916906020019091908035906020019091905050610cec565b6040518083600019166000191681526020018281526020019250505060405180910390f35b34156103a557600080fd5b6103bb600480803590602001909190505061103c565b60405180826000191660001916815260200191505060405180910390f35b34156103e457600080fd5b6103ec611060565b6040518080602001828103825283818151815260200191508051906020019060200280838360005b8381101561042f578082015181840152602081019050610414565b505050509050019250505060405180910390f35b341561044e57600080fd5b6104566110c2565b6040518080602001828103825283818151815260200191508051906020019060200280838360005b8381101561049957808201518184015260208101905061047e565b505050509050019250505060405180910390f35b34156104b857600080fd5b610508600480803590602001908201803590602001908080601f01602080910402602001604051908101604052809392919081815260200183838082843782019150505050505091905050611124565b604051808215151515815260200191505060405180910390f35b600080600090505b600460008473ffffffffffffffffffffffffffffffffffffffff1673ffffffffffffffffffffffffffffffffffffffff168152602001908152602001600020600001805490508110156106c057836040518082805190602001908083835b6020831015156105ad5780518252602082019150602081019050602083039250610588565b6001836020036101000a038019825116818451168082178552505050505050905001915050604051809103902060001916600460008573ffffffffffffffffffffffffffffffffffffffff1673ffffffffffffffffffffffffffffffffffffffff1681526020019081526020016000206000018281548110151561062d57fe5b906000526020600020900160405180828054600181600116156101000203166002900480156106935780601f10610671576101008083540402835291820191610693565b820191906000526020600020905b81548152906001019060200180831161067f575b505091505060405180910390206000191614156106b357600191506106c5565b808060010191505061052a565b600091505b5092915050565b6106d461124d565b6000806000600360008773ffffffffffffffffffffffffffffffffffffffff1673ffffffffffffffffffffffffffffffffffffffff1681526020019081526020016000206000018581548110151561072857fe5b906000526020600020900190508060028260405180828054600181600116156101000203166002900480156107945780601f10610772576101008083540402835291820191610794565b820191906000526020600020905b815481529060010190602001808311610780575b505091505090815260200160405180910390206001015460028360405180828054600181600116156101000203166002900480156108095780601f106107e7576101008083540402835291820191610809565b820191906000526020600020905b8154815290600101906020018083116107f5575b5050915050908152602001604051809103902060020154828054600181600116156101000203166002900480601f0160208091040260200160405190810160405280929190818152602001828054600181600116156101000203166002900480156108b55780601f1061088a576101008083540402835291602001916108b5565b820191906000526020600020905b81548152906001019060200180831161089857829003601f168201915b50505050509250935093509350509250925092565b6005818154811015156108d957fe5b90600052602060002090016000915090505481565b60008060006002846040518082805190602001908083835b60208310151561092b5780518252602082019150602081019050602083039250610906565b6001836020036101000a03801982511681845116808217855250505050505090500191505090815260200160405180910390206002015491506002846040518082805190602001908083835b60208310151561099c5780518252602082019150602081019050602083039250610977565b6001836020036101000a038019825116818451168082178552505050505050905001915050908152602001604051809103902060000160009054906101000a900473ffffffffffffffffffffffffffffffffffffffff1690506002846040518082805190602001908083835b602083101515610a2d5780518252602082019150602081019050602083039250610a08565b6001836020036101000a03801982511681845116808217855250505050505090500191505090815260200160405180910390206002015460016005815481101515610a7457fe5b9060005260206000209001541015610a8f5760009250610c96565b8160016005815481101515610aa057fe5b9060005260206000209001600082825403925050819055508160016000815481101515610ac957fe5b9060005260206000209001600082825401925050819055508073ffffffffffffffffffffffffffffffffffffffff163373ffffffffffffffffffffffffffffffffffffffff167fddf252ad1be2c89b69c2b068fc378daa952ba7f163c4a11628f55a4df523b3ef846040518082815260200191505060405180910390a3600460003373ffffffffffffffffffffffffffffffffffffffff1673ffffffffffffffffffffffffffffffffffffffff1681526020019081526020016000206000018054806001018281610b9a9190611261565b916000526020600020900160008690919091509080519060200190610bc092919061128d565b50506002846040518082805190602001908083835b602083101515610bfa5780518252602082019150602081019050602083039250610bd5565b6001836020036101000a03801982511681845116808217855250505050505090500191505090815260200160405180910390206003018054806001018281610c42919061130d565b9160005260206000209001600033909190916101000a81548173ffffffffffffffffffffffffffffffffffffffff021916908373ffffffffffffffffffffffffffffffffffffffff16021790555050600192505b5050919050565b6000600360008373ffffffffffffffffffffffffffffffffffffffff1673ffffffffffffffffffffffffffffffffffffffff168152602001908152602001600020600001805490509050919050565b600080610cf885611124565b1515610d0357600080fd5b600360003373ffffffffffffffffffffffffffffffffffffffff1673ffffffffffffffffffffffffffffffffffffffff1681526020019081526020016000206000018054806001018281610d579190611261565b916000526020600020900160008790919091509080519060200190610d7d92919061128d565b505060008054806001018281610d939190611261565b916000526020600020900160008790919091509080519060200190610db992919061128d565b5050336002866040518082805190602001908083835b602083101515610df45780518252602082019150602081019050602083039250610dcf565b6001836020036101000a038019825116818451168082178552505050505050905001915050908152602001604051809103902060000160006101000a81548173ffffffffffffffffffffffffffffffffffffffff021916908373ffffffffffffffffffffffffffffffffffffffff160217905550836002866040518082805190602001908083835b602083101515610ea15780518252602082019150602081019050602083039250610e7c565b6001836020036101000a03801982511681845116808217855250505050505090500191505090815260200160405180910390206001018160001916905550826002866040518082805190602001908083835b602083101515610f185780518252602082019150602081019050602083039250610ef3565b6001836020036101000a0380198251168184511680821785525050505050509050019150509081526020016040518091039020600201819055506002856040518082805190602001908083835b602083101515610f8a5780518252602082019150602081019050602083039250610f65565b6001836020036101000a0380198251168184511680821785525050505050509050019150509081526020016040518091039020600101546002866040518082805190602001908083835b602083101515610ff95780518252602082019150602081019050602083039250610fd4565b6001836020036101000a03801982511681845116808217855250505050505090500191505090815260200160405180910390206002015491509150935093915050565b60068181548110151561104b57fe5b90600052602060002090016000915090505481565b611068611339565b60058054806020026020016040519081016040528092919081815260200182805480156110b857602002820191906000526020600020905b815460001916815260200190600101908083116110a0575b5050505050905090565b6110ca611339565b600680548060200260200160405190810160405280929190818152602001828054801561111a57602002820191906000526020600020905b81546000191681526020019060010190808311611102575b5050505050905090565b600080600090505b60008054905081101561124257826040518082805190602001908083835b60208310151561116f578051825260208201915060208101905060208303925061114a565b6001836020036101000a0380198251168184511680821785525050505050509050019150506040518091039020600019166000828154811015156111af57fe5b906000526020600020900160405180828054600181600116156101000203166002900480156112155780601f106111f3576101008083540402835291820191611215565b820191906000526020600020905b815481529060010190602001808311611201575b505091505060405180910390206000191614156112355760009150611247565b808060010191505061112c565b600191505b50919050565b602060405190810160405280600081525090565b81548183558181151161128857818360005260206000209182019101611287919061134d565b5b505050565b828054600181600116156101000203166002900490600052602060002090601f016020900481019282601f106112ce57805160ff19168380011785556112fc565b828001600101855582156112fc579182015b828111156112fb5782518255916020019190600101906112e0565b5b5090506113099190611379565b5090565b815481835581811511611334578183600052602060002091820191016113339190611379565b5b505050565b602060405190810160405280600081525090565b61137691905b808211156113725760008181611369919061139e565b50600101611353565b5090565b90565b61139b91905b8082111561139757600081600090555060010161137f565b5090565b90565b50805460018160011615610100020316600290046000825580601f106113c457506113e3565b601f0160209004906000526020600020908101906113e29190611379565b5b505600a165627a7a723058200d0e0b16534d8493ffa3c72116e45876895e1fe0dcff8bd73d5257765960724f0029",
  "source": "pragma solidity ^0.4.18; //We have to specify what version of the compiler this code will use\n\ncontract Store {\n\n  // We use the struct datatype to store the voter information.\n  struct Media {\n    address creator;\n    bytes32 title;\n    uint price;\n    address[] consumers;\n  }\n\n  struct Creator {\n    string[] creatorMediaList;\n  }\n\n  struct Consumer {\n    string[] consumerMediaList;\n  }\n\n  string[] allMedia;\n\n//  mapping (address => uint) public wallets;\n  uint[] wallets;\n  mapping (string => Media) mediaStructs;\n  mapping (address => Creator) creatorStructs;\n  mapping (address => Consumer) consumerStructs;\n  bytes32[] public creatorsList;\n  bytes32[] public consumersList;\n\n  event Transfer(address indexed _from, address indexed _to, uint256 _value);\n\n  /* When the contract is deployed on the blockchain, we will initialize\n   the total number of tokens for sale, cost per token and all the candidates\n   */\n  function Store(bytes32[] candidateNames1, bytes32[] candidateNames2, uint[] balance) public {\n    creatorsList = candidateNames1;\n    consumersList = candidateNames2;\n    wallets = balance;\n  }\n\n\n  function buy(string code) payable public returns(bool success) {\n    uint amount = mediaStructs[code].price;\n    address receiver = mediaStructs[code].creator;\n    if (wallets[5] < mediaStructs[code].price) return false;\n    wallets[5] -= amount;\n    wallets[0] += amount;\n    Transfer(msg.sender, receiver, amount);\n    consumerStructs[msg.sender].consumerMediaList.push(code);\n    mediaStructs[code].consumers.push(msg.sender);\n    return true;\n  }\n\n  function addMedia(string code, bytes32 mname, uint cost) view public returns (bytes32, uint) {\n    require(validMedia(code));\n    creatorStructs[msg.sender].creatorMediaList.push(code);\n    allMedia.push(code);\n    mediaStructs[code].creator = msg.sender;\n    mediaStructs[code].title = mname;\n    mediaStructs[code].price = cost;\n    return (mediaStructs[code].title, mediaStructs[code].price);\n  }\n\n  function allCreators() view public returns (bytes32[]) {\n    return creatorsList;\n  }\n\n  function allConsumers() view public returns (bytes32[]) {\n    return consumersList;\n  }\n\n/*  function getWallet(address creatorAddress) view public returns (uint) {\n    return wallets[creatorAddress];\n  }\n*/\n\n  function getMedia(address creatorAddress, uint index) view public returns (string, bytes32, uint) {\n    string url = creatorStructs[creatorAddress].creatorMediaList[index];\n    return (url, mediaStructs[url].title, mediaStructs[url].price);\n  }\n\n  function checkMediaForConsumer(string code, address consumerAddress) view public returns (bool) {\n    for (uint i = 0; i < consumerStructs[consumerAddress].consumerMediaList.length; i++){\n      if (sha3(consumerStructs[consumerAddress].consumerMediaList[i]) == sha3(code)) {\n        return true;\n      }\n    }\n    return false;\n  }\n\n  function getMediaCount(address creatorAddress) view public returns (uint) {\n    return creatorStructs[creatorAddress].creatorMediaList.length;\n  }\n\n  function validMedia(string code) view public returns (bool) {\n    for(uint i = 0; i < allMedia.length; i++) {\n      if (sha3(allMedia[i]) == sha3(code)){\n        return false;\n      }\n    }\n    return true;\n  }\n\n}\n",
  "sourcePath": "/Users/ashleyjain/self_study/github/mediaStore/contracts/Store.sol",
  "compiler": {
    "name": "solc",
    "version": "0.4.18+commit.9cf6e910.Emscripten.clang"
  },
  "schemaVersion": "1.0.1",
  "updatedAt": "2018-01-27T17:47:30.099Z"
}