{
  "contractName": "Store",
  "abi": [
    {
      "constant": true,
      "inputs": [
        {
          "name": "creatorAddress",
          "type": "address"
        }
      ],
      "name": "getWallet",
      "outputs": [
        {
          "name": "",
          "type": "uint256"
        }
      ],
      "payable": false,
      "stateMutability": "view",
      "type": "function"
    },
    {
      "constant": true,
      "inputs": [
        {
          "name": "creatorAddress",
          "type": "address"
        },
        {
          "name": "index",
          "type": "uint256"
        }
      ],
      "name": "getMedia",
      "outputs": [
        {
          "name": "",
          "type": "bytes32"
        },
        {
          "name": "",
          "type": "bytes32"
        },
        {
          "name": "",
          "type": "address[]"
        },
        {
          "name": "",
          "type": "uint256"
        }
      ],
      "payable": false,
      "stateMutability": "view",
      "type": "function"
    },
    {
      "constant": true,
      "inputs": [
        {
          "name": "",
          "type": "uint256"
        }
      ],
      "name": "creatorsList",
      "outputs": [
        {
          "name": "",
          "type": "bytes32"
        }
      ],
      "payable": false,
      "stateMutability": "view",
      "type": "function"
    },
    {
      "constant": false,
      "inputs": [
        {
          "name": "code",
          "type": "bytes32"
        },
        {
          "name": "mname",
          "type": "bytes32"
        },
        {
          "name": "cost",
          "type": "uint256"
        }
      ],
      "name": "addMedia",
      "outputs": [],
      "payable": false,
      "stateMutability": "nonpayable",
      "type": "function"
    },
    {
      "constant": true,
      "inputs": [
        {
          "name": "creatorAddress",
          "type": "address"
        }
      ],
      "name": "getMediaCount",
      "outputs": [
        {
          "name": "",
          "type": "uint256"
        }
      ],
      "payable": false,
      "stateMutability": "view",
      "type": "function"
    },
    {
      "constant": true,
      "inputs": [
        {
          "name": "",
          "type": "address"
        }
      ],
      "name": "wallets",
      "outputs": [
        {
          "name": "",
          "type": "uint256"
        }
      ],
      "payable": false,
      "stateMutability": "view",
      "type": "function"
    },
    {
      "constant": true,
      "inputs": [
        {
          "name": "",
          "type": "uint256"
        }
      ],
      "name": "consumersList",
      "outputs": [
        {
          "name": "",
          "type": "bytes32"
        }
      ],
      "payable": false,
      "stateMutability": "view",
      "type": "function"
    },
    {
      "constant": true,
      "inputs": [],
      "name": "allCreators",
      "outputs": [
        {
          "name": "",
          "type": "bytes32[]"
        }
      ],
      "payable": false,
      "stateMutability": "view",
      "type": "function"
    },
    {
      "constant": true,
      "inputs": [],
      "name": "allConsumers",
      "outputs": [
        {
          "name": "",
          "type": "bytes32[]"
        }
      ],
      "payable": false,
      "stateMutability": "view",
      "type": "function"
    },
    {
      "inputs": [
        {
          "name": "candidateNames1",
          "type": "bytes32[]"
        },
        {
          "name": "candidateNames2",
          "type": "bytes32[]"
        }
      ],
      "payable": false,
      "stateMutability": "nonpayable",
      "type": "constructor"
    }
  ],
  "bytecode": "0x6060604052341561000f57600080fd5b60405161094038038061094083398101604052808051820191906020018051820191905050816003908051906020019061004a929190610069565b508060049080519060200190610061929190610069565b5050506100e1565b8280548282559060005260206000209081019282156100ab579160200282015b828111156100aa578251829060001916905591602001919060010190610089565b5b5090506100b891906100bc565b5090565b6100de91905b808211156100da5760008160009055506001016100c2565b5090565b90565b610850806100f06000396000f300606060405260043610610099576000357c0100000000000000000000000000000000000000000000000000000000900463ffffffff16806304d0a6471461009e5780630ec45411146100eb5780631b422df6146101a75780631e3702f4146101e6578063651cd70f1461022357806389b08f11146102705780638e41f1f1146102bd57806392a4280b146102fc5780639e12cf6414610366575b600080fd5b34156100a957600080fd5b6100d5600480803573ffffffffffffffffffffffffffffffffffffffff169060200190919050506103d0565b6040518082815260200191505060405180910390f35b34156100f657600080fd5b61012b600480803573ffffffffffffffffffffffffffffffffffffffff16906020019091908035906020019091905050610418565b604051808560001916600019168152602001846000191660001916815260200180602001838152602001828103825284818151815260200191508051906020019060200280838360005b83811015610190578082015181840152602081019050610175565b505050509050019550505050505060405180910390f35b34156101b257600080fd5b6101c8600480803590602001909190505061057a565b60405180826000191660001916815260200191505060405180910390f35b34156101f157600080fd5b6102216004808035600019169060200190919080356000191690602001909190803590602001909190505061059e565b005b341561022e57600080fd5b61025a600480803573ffffffffffffffffffffffffffffffffffffffff1690602001909190505061065c565b6040518082815260200191505060405180910390f35b341561027b57600080fd5b6102a7600480803573ffffffffffffffffffffffffffffffffffffffff169060200190919050506106ab565b6040518082815260200191505060405180910390f35b34156102c857600080fd5b6102de60048080359060200190919050506106c3565b60405180826000191660001916815260200191505060405180910390f35b341561030757600080fd5b61030f6106e7565b6040518080602001828103825283818151815260200191508051906020019060200280838360005b83811015610352578082015181840152602081019050610337565b505050509050019250505060405180910390f35b341561037157600080fd5b610379610749565b6040518080602001828103825283818151815260200191508051906020019060200280838360005b838110156103bc5780820151818401526020810190506103a1565b505050509050019250505060405180910390f35b60008060008373ffffffffffffffffffffffffffffffffffffffff1673ffffffffffffffffffffffffffffffffffffffff168152602001908152602001600020549050919050565b6000806104236107ab565b600080600260008873ffffffffffffffffffffffffffffffffffffffff1673ffffffffffffffffffffffffffffffffffffffff1681526020019081526020016000206000018681548110151561047557fe5b90600052602060002090015490508060016000836000191660001916815260200190815260200160002060000154600160008460001916600019168152602001908152602001600020600101600160008560001916600019168152602001908152602001600020600201548180548060200260200160405190810160405280929190818152602001828054801561056157602002820191906000526020600020905b8160009054906101000a900473ffffffffffffffffffffffffffffffffffffffff1673ffffffffffffffffffffffffffffffffffffffff1681526020019060010190808311610517575b5050505050915094509450945094505092959194509250565b60038181548110151561058957fe5b90600052602060002090016000915090505481565b600260003373ffffffffffffffffffffffffffffffffffffffff1673ffffffffffffffffffffffffffffffffffffffff16815260200190815260200160002060000180548060010182816105f291906107bf565b9160005260206000209001600085909190915090600019169055508160016000856000191660001916815260200190815260200160002060000181600019169055508060016000856000191660001916815260200190815260200160002060020181905550505050565b6000600260008373ffffffffffffffffffffffffffffffffffffffff1673ffffffffffffffffffffffffffffffffffffffff168152602001908152602001600020600001805490509050919050565b60006020528060005260406000206000915090505481565b6004818154811015156106d257fe5b90600052602060002090016000915090505481565b6106ef6107eb565b600380548060200260200160405190810160405280929190818152602001828054801561073f57602002820191906000526020600020905b81546000191681526020019060010190808311610727575b5050505050905090565b6107516107eb565b60048054806020026020016040519081016040528092919081815260200182805480156107a157602002820191906000526020600020905b81546000191681526020019060010190808311610789575b5050505050905090565b602060405190810160405280600081525090565b8154818355818115116107e6578183600052602060002091820191016107e591906107ff565b5b505050565b602060405190810160405280600081525090565b61082191905b8082111561081d576000816000905550600101610805565b5090565b905600a165627a7a72305820ecc752c37f4b1cea6897026709767cafdb5361da59f6bf883b807fcdcdeab7430029",
  "source": "pragma solidity ^0.4.18; //We have to specify what version of the compiler this code will use\n\ncontract Store {\n\n  // We use the struct datatype to store the voter information.\n  struct Media {\n    bytes32 title;\n    address[] audience;\n    uint price;\n  }\n\n  struct Creator {\n    bytes32[] mediaList;\n  }\n\n  mapping (address => uint) public wallets;\n  mapping (bytes32 => Media) mediaStructs;\n  mapping (address => Creator) creatorStructs;\n  bytes32[] public creatorsList;\n  bytes32[] public consumersList;\n\n  /* When the contract is deployed on the blockchain, we will initialize\n   the total number of tokens for sale, cost per token and all the candidates\n   */\n  function Store(bytes32[] candidateNames1, bytes32[] candidateNames2) public {\n    creatorsList = candidateNames1;\n    consumersList = candidateNames2;\n  }\n\n/*\n  function buy(bytes32 code) payable public {\n    uint req_cost;\n    uint i;\n    bytes32 hashcode;\n    for(i = 0; i < creatorStructs[creatorAddress].mediaList.length; i++) {\n      hashcode = creatorStructs[creatorAddress].mediaList[i];\n      if (creatorStructs[creatorAddress].mediaStructs[hashcode].title == mname) {\n        req_cost = creatorStructs[creatorAddress].mediaStructs[hashcode].price;\n        break;\n      }\n    }\n    require(req_cost == cost);\n    creatorStructs[creatorAddress].mediaStructs[hashcode].audience.push(msg.sender);\n    wallets[creatorAddress] += cost;\n    // return wallets[creatorAddress];\n  }\n  */\n\n  function addMedia(bytes32 code, bytes32 mname, uint cost) public {\n    creatorStructs[msg.sender].mediaList.push(code);\n    mediaStructs[code].title = mname;\n    mediaStructs[code].price = cost;\n    // return (mediaStructs[code].title, mediaStructs[code].price, creatorStructs[msg.sender].mediaList.length);\n  }\n\n  function allCreators() view public returns (bytes32[]) {\n    return creatorsList;\n  }\n\n  function allConsumers() view public returns (bytes32[]) {\n    return consumersList;\n  }\n\n  function getWallet(address creatorAddress) view public returns (uint) {\n    return wallets[creatorAddress];\n  }\n\n  function getMedia(address creatorAddress, uint index) view public returns (bytes32, bytes32, address[], uint) {\n    bytes32 hashcode = creatorStructs[creatorAddress].mediaList[index];\n    return (hashcode, mediaStructs[hashcode].title, mediaStructs[hashcode].audience, mediaStructs[hashcode].price);\n  }\n\n  function getMediaCount(address creatorAddress) view public returns (uint) {\n    return creatorStructs[creatorAddress].mediaList.length;\n  }\n\n}\n",
  "sourcePath": "/Users/ashleyjain/self_study/github/mediaStore/contracts/Store.sol",
  "compiler": {
    "name": "solc",
    "version": "0.4.18+commit.9cf6e910.Emscripten.clang"
  },
  "schemaVersion": "1.0.1",
  "updatedAt": "2018-01-26T10:13:21.030Z"
}