{
  "contractName": "Store",
  "abi": [
    {
      "constant": true,
      "inputs": [
        {
          "name": "creatorAddress",
          "type": "address"
        }
      ],
      "name": "getWallet",
      "outputs": [
        {
          "name": "",
          "type": "uint256"
        }
      ],
      "payable": false,
      "stateMutability": "view",
      "type": "function"
    },
    {
      "constant": true,
      "inputs": [
        {
          "name": "creatorAddress",
          "type": "address"
        },
        {
          "name": "index",
          "type": "uint256"
        }
      ],
      "name": "getMedia",
      "outputs": [
        {
          "name": "",
          "type": "bytes32"
        },
        {
          "name": "",
          "type": "bytes32"
        },
        {
          "name": "",
          "type": "uint256"
        }
      ],
      "payable": false,
      "stateMutability": "view",
      "type": "function"
    },
    {
      "constant": true,
      "inputs": [
        {
          "name": "",
          "type": "uint256"
        }
      ],
      "name": "creatorsList",
      "outputs": [
        {
          "name": "",
          "type": "bytes32"
        }
      ],
      "payable": false,
      "stateMutability": "view",
      "type": "function"
    },
    {
      "constant": true,
      "inputs": [
        {
          "name": "code",
          "type": "bytes32"
        },
        {
          "name": "mname",
          "type": "bytes32"
        },
        {
          "name": "cost",
          "type": "uint256"
        }
      ],
      "name": "addMedia",
      "outputs": [
        {
          "name": "",
          "type": "bytes32"
        },
        {
          "name": "",
          "type": "uint256"
        }
      ],
      "payable": false,
      "stateMutability": "view",
      "type": "function"
    },
    {
      "constant": true,
      "inputs": [
        {
          "name": "creatorAddress",
          "type": "address"
        }
      ],
      "name": "getMediaCount",
      "outputs": [
        {
          "name": "",
          "type": "uint256"
        }
      ],
      "payable": false,
      "stateMutability": "view",
      "type": "function"
    },
    {
      "constant": true,
      "inputs": [
        {
          "name": "",
          "type": "address"
        }
      ],
      "name": "wallets",
      "outputs": [
        {
          "name": "",
          "type": "uint256"
        }
      ],
      "payable": false,
      "stateMutability": "view",
      "type": "function"
    },
    {
      "constant": true,
      "inputs": [
        {
          "name": "",
          "type": "uint256"
        }
      ],
      "name": "consumersList",
      "outputs": [
        {
          "name": "",
          "type": "bytes32"
        }
      ],
      "payable": false,
      "stateMutability": "view",
      "type": "function"
    },
    {
      "constant": true,
      "inputs": [],
      "name": "allCreators",
      "outputs": [
        {
          "name": "",
          "type": "bytes32[]"
        }
      ],
      "payable": false,
      "stateMutability": "view",
      "type": "function"
    },
    {
      "constant": true,
      "inputs": [],
      "name": "allConsumers",
      "outputs": [
        {
          "name": "",
          "type": "bytes32[]"
        }
      ],
      "payable": false,
      "stateMutability": "view",
      "type": "function"
    },
    {
      "inputs": [
        {
          "name": "candidateNames1",
          "type": "bytes32[]"
        },
        {
          "name": "candidateNames2",
          "type": "bytes32[]"
        }
      ],
      "payable": false,
      "stateMutability": "nonpayable",
      "type": "constructor"
    }
  ],
  "bytecode": "0x6060604052341561000f57600080fd5b60405161089d38038061089d83398101604052808051820191906020018051820191905050816004908051906020019061004a929190610069565b508060059080519060200190610061929190610069565b5050506100e1565b8280548282559060005260206000209081019282156100ab579160200282015b828111156100aa578251829060001916905591602001919060010190610089565b5b5090506100b891906100bc565b5090565b6100de91905b808211156100da5760008160009055506001016100c2565b5090565b90565b6107ad806100f06000396000f300606060405260043610610099576000357c0100000000000000000000000000000000000000000000000000000000900463ffffffff16806304d0a6471461009e5780630ec45411146100eb5780631b422df61461015f5780631e3702f41461019e578063651cd70f146101fe57806389b08f111461024b5780638e41f1f11461029857806392a4280b146102d75780639e12cf6414610341575b600080fd5b34156100a957600080fd5b6100d5600480803573ffffffffffffffffffffffffffffffffffffffff169060200190919050506103ab565b6040518082815260200191505060405180910390f35b34156100f657600080fd5b61012b600480803573ffffffffffffffffffffffffffffffffffffffff169060200190919080359060200190919050506103f3565b6040518084600019166000191681526020018360001916600019168152602001828152602001935050505060405180910390f35b341561016a57600080fd5b61018060048080359060200190919050506104a3565b60405180826000191660001916815260200191505060405180910390f35b34156101a957600080fd5b6101d9600480803560001916906020019091908035600019169060200190919080359060200190919050506104c7565b6040518083600019166000191681526020018281526020019250505060405180910390f35b341561020957600080fd5b610235600480803573ffffffffffffffffffffffffffffffffffffffff169060200190919050506105cd565b6040518082815260200191505060405180910390f35b341561025657600080fd5b610282600480803573ffffffffffffffffffffffffffffffffffffffff1690602001909190505061061c565b6040518082815260200191505060405180910390f35b34156102a357600080fd5b6102b96004808035906020019091905050610634565b60405180826000191660001916815260200191505060405180910390f35b34156102e257600080fd5b6102ea610658565b6040518080602001828103825283818151815260200191508051906020019060200280838360005b8381101561032d578082015181840152602081019050610312565b505050509050019250505060405180910390f35b341561034c57600080fd5b6103546106ba565b6040518080602001828103825283818151815260200191508051906020019060200280838360005b8381101561039757808201518184015260208101905061037c565b505050509050019250505060405180910390f35b60008060008373ffffffffffffffffffffffffffffffffffffffff1673ffffffffffffffffffffffffffffffffffffffff168152602001908152602001600020549050919050565b600080600080600260008773ffffffffffffffffffffffffffffffffffffffff1673ffffffffffffffffffffffffffffffffffffffff1681526020019081526020016000206000018581548110151561044857fe5b9060005260206000209001549050806001600083600019166000191681526020019081526020016000206000015460016000846000191660001916815260200190815260200160002060010154935093509350509250925092565b6004818154811015156104b257fe5b90600052602060002090016000915090505481565b600080600260003373ffffffffffffffffffffffffffffffffffffffff1673ffffffffffffffffffffffffffffffffffffffff168152602001908152602001600020600001805480600101828161051e919061071c565b9160005260206000209001600087909190915090600019169055508360016000876000191660001916815260200190815260200160002060000181600019169055508260016000876000191660001916815260200190815260200160002060010181905550600160008660001916600019168152602001908152602001600020600001546001600087600019166000191681526020019081526020016000206001015491509150935093915050565b6000600260008373ffffffffffffffffffffffffffffffffffffffff1673ffffffffffffffffffffffffffffffffffffffff168152602001908152602001600020600001805490509050919050565b60006020528060005260406000206000915090505481565b60058181548110151561064357fe5b90600052602060002090016000915090505481565b610660610748565b60048054806020026020016040519081016040528092919081815260200182805480156106b057602002820191906000526020600020905b81546000191681526020019060010190808311610698575b5050505050905090565b6106c2610748565b600580548060200260200160405190810160405280929190818152602001828054801561071257602002820191906000526020600020905b815460001916815260200190600101908083116106fa575b5050505050905090565b81548183558181151161074357818360005260206000209182019101610742919061075c565b5b505050565b602060405190810160405280600081525090565b61077e91905b8082111561077a576000816000905550600101610762565b5090565b905600a165627a7a72305820fe3b9f1309c81f7bf9f2436b4abc92ae1c0a87b070c596fe29fbd2ebe193fd800029",
  "source": "pragma solidity ^0.4.18; //We have to specify what version of the compiler this code will use\n\ncontract Store {\n\n  // We use the struct datatype to store the voter information.\n  struct Media {\n    bytes32 title;\n    uint price;\n  }\n\n  struct Creator {\n    bytes32[] mediaList;\n  }\n\n  struct Consumer {\n    bytes32[] Media;\n  }\n\n  mapping (address => uint) public wallets;\n  mapping (bytes32 => Media) mediaStructs;\n  mapping (address => Creator) creatorStructs;\n  mapping (address => Consumer) consumerStructs;\n  bytes32[] public creatorsList;\n  bytes32[] public consumersList;\n\n  /* When the contract is deployed on the blockchain, we will initialize\n   the total number of tokens for sale, cost per token and all the candidates\n   */\n  function Store(bytes32[] candidateNames1, bytes32[] candidateNames2) public {\n    creatorsList = candidateNames1;\n    consumersList = candidateNames2;\n  }\n\n/*\n  function buy(bytes32 code) payable public {\n    uint req_cost;\n    uint i;\n    bytes32 hashcode;\n    for(i = 0; i < creatorStructs[creatorAddress].mediaList.length; i++) {\n      hashcode = creatorStructs[creatorAddress].mediaList[i];\n      if (creatorStructs[creatorAddress].mediaStructs[hashcode].title == mname) {\n        req_cost = creatorStructs[creatorAddress].mediaStructs[hashcode].price;\n        break;\n      }\n    }\n    require(req_cost == cost);\n    creatorStructs[creatorAddress].mediaStructs[hashcode].audience.push(msg.sender);\n    wallets[creatorAddress] += cost;\n    // return wallets[creatorAddress];\n  }\n  */\n\n  function addMedia(bytes32 code, bytes32 mname, uint cost) view public returns (bytes32, uint) {\n    creatorStructs[msg.sender].mediaList.push(code);\n    mediaStructs[code].title = mname;\n    mediaStructs[code].price = cost;\n    return (mediaStructs[code].title, mediaStructs[code].price);\n  }\n\n  function allCreators() view public returns (bytes32[]) {\n    return creatorsList;\n  }\n\n  function allConsumers() view public returns (bytes32[]) {\n    return consumersList;\n  }\n\n  function getWallet(address creatorAddress) view public returns (uint) {\n    return wallets[creatorAddress];\n  }\n\n  function getMedia(address creatorAddress, uint index) view public returns (bytes32, bytes32, uint) {\n    bytes32 url = creatorStructs[creatorAddress].mediaList[index];\n    return (url, mediaStructs[url].title, mediaStructs[url].price);\n  }\n\n  function getMediaCount(address creatorAddress) view public returns (uint) {\n    return creatorStructs[creatorAddress].mediaList.length;\n  }\n\n}\n",
  "sourcePath": "/Users/ram/mediaStore/contracts/Store.sol",
  "compiler": {
    "name": "solc",
    "version": "0.4.18+commit.9cf6e910.Emscripten.clang"
  },
  "schemaVersion": "1.0.1",
  "updatedAt": "2018-01-27T08:36:13.069Z"
}