{
  "contractName": "Store",
  "abi": [
    {
      "constant": true,
      "inputs": [
        {
          "name": "creatorAddress",
          "type": "address"
        }
      ],
      "name": "getWallet",
      "outputs": [
        {
          "name": "",
          "type": "uint256"
        }
      ],
      "payable": false,
      "stateMutability": "view",
      "type": "function"
    },
    {
      "constant": true,
      "inputs": [
        {
          "name": "creatorAddress",
          "type": "address"
        },
        {
          "name": "index",
          "type": "uint256"
        }
      ],
      "name": "getMedia",
      "outputs": [
        {
          "name": "",
          "type": "string"
        },
        {
          "name": "",
          "type": "bytes32"
        },
        {
          "name": "",
          "type": "uint256"
        }
      ],
      "payable": false,
      "stateMutability": "view",
      "type": "function"
    },
    {
      "constant": true,
      "inputs": [
        {
          "name": "",
          "type": "uint256"
        }
      ],
      "name": "creatorsList",
      "outputs": [
        {
          "name": "",
          "type": "bytes32"
        }
      ],
      "payable": false,
      "stateMutability": "view",
      "type": "function"
    },
    {
      "constant": true,
      "inputs": [
        {
          "name": "code",
          "type": "string"
        }
      ],
      "name": "validCandidate",
      "outputs": [
        {
          "name": "",
          "type": "bool"
        }
      ],
      "payable": false,
      "stateMutability": "view",
      "type": "function"
    },
    {
      "constant": true,
      "inputs": [
        {
          "name": "creatorAddress",
          "type": "address"
        }
      ],
      "name": "getMediaCount",
      "outputs": [
        {
          "name": "",
          "type": "uint256"
        }
      ],
      "payable": false,
      "stateMutability": "view",
      "type": "function"
    },
    {
      "constant": true,
      "inputs": [
        {
          "name": "code",
          "type": "string"
        },
        {
          "name": "mname",
          "type": "bytes32"
        },
        {
          "name": "cost",
          "type": "uint256"
        }
      ],
      "name": "addMedia",
      "outputs": [
        {
          "name": "",
          "type": "bytes32"
        },
        {
          "name": "",
          "type": "uint256"
        }
      ],
      "payable": false,
      "stateMutability": "view",
      "type": "function"
    },
    {
      "constant": true,
      "inputs": [
        {
          "name": "",
          "type": "address"
        }
      ],
      "name": "wallets",
      "outputs": [
        {
          "name": "",
          "type": "uint256"
        }
      ],
      "payable": false,
      "stateMutability": "view",
      "type": "function"
    },
    {
      "constant": true,
      "inputs": [
        {
          "name": "",
          "type": "uint256"
        }
      ],
      "name": "consumersList",
      "outputs": [
        {
          "name": "",
          "type": "bytes32"
        }
      ],
      "payable": false,
      "stateMutability": "view",
      "type": "function"
    },
    {
      "constant": true,
      "inputs": [],
      "name": "allCreators",
      "outputs": [
        {
          "name": "",
          "type": "bytes32[]"
        }
      ],
      "payable": false,
      "stateMutability": "view",
      "type": "function"
    },
    {
      "constant": true,
      "inputs": [],
      "name": "allConsumers",
      "outputs": [
        {
          "name": "",
          "type": "bytes32[]"
        }
      ],
      "payable": false,
      "stateMutability": "view",
      "type": "function"
    },
    {
      "inputs": [
        {
          "name": "candidateNames1",
          "type": "bytes32[]"
        },
        {
          "name": "candidateNames2",
          "type": "bytes32[]"
        }
      ],
      "payable": false,
      "stateMutability": "nonpayable",
      "type": "constructor"
    }
  ],
  "bytecode": "0x6060604052341561000f57600080fd5b604051610ecd380380610ecd83398101604052808051820191906020018051820191905050816005908051906020019061004a929190610069565b508060069080519060200190610061929190610069565b5050506100e1565b8280548282559060005260206000209081019282156100ab579160200282015b828111156100aa578251829060001916905591602001919060010190610089565b5b5090506100b891906100bc565b5090565b6100de91905b808211156100da5760008160009055506001016100c2565b5090565b90565b610ddd806100f06000396000f3006060604052600436106100a4576000357c0100000000000000000000000000000000000000000000000000000000900463ffffffff16806304d0a647146100a95780630ec45411146100f65780631b422df6146101c7578063538c91b214610206578063651cd70f1461027b578063770da1e4146102c857806389b08f111461035e5780638e41f1f1146103ab57806392a4280b146103ea5780639e12cf6414610454575b600080fd5b34156100b457600080fd5b6100e0600480803573ffffffffffffffffffffffffffffffffffffffff169060200190919050506104be565b6040518082815260200191505060405180910390f35b341561010157600080fd5b610136600480803573ffffffffffffffffffffffffffffffffffffffff16906020019091908035906020019091905050610507565b60405180806020018460001916600019168152602001838152602001828103825285818151815260200191508051906020019080838360005b8381101561018a57808201518184015260208101905061016f565b50505050905090810190601f1680156101b75780820380516001836020036101000a031916815260200191505b5094505050505060405180910390f35b34156101d257600080fd5b6101e86004808035906020019091905050610705565b60405180826000191660001916815260200191505060405180910390f35b341561021157600080fd5b610261600480803590602001908201803590602001908080601f01602080910402602001604051908101604052809392919081815260200183838082843782019150505050505091905050610729565b604051808215151515815260200191505060405180910390f35b341561028657600080fd5b6102b2600480803573ffffffffffffffffffffffffffffffffffffffff16906020019091905050610852565b6040518082815260200191505060405180910390f35b34156102d357600080fd5b610339600480803590602001908201803590602001908080601f01602080910402602001604051908101604052809392919081815260200183838082843782019150505050505091908035600019169060200190919080359060200190919050506108a1565b6040518083600019166000191681526020018281526020019250505060405180910390f35b341561036957600080fd5b610395600480803573ffffffffffffffffffffffffffffffffffffffff16906020019091905050610b44565b6040518082815260200191505060405180910390f35b34156103b657600080fd5b6103cc6004808035906020019091905050610b5c565b60405180826000191660001916815260200191505060405180910390f35b34156103f557600080fd5b6103fd610b80565b6040518080602001828103825283818151815260200191508051906020019060200280838360005b83811015610440578082015181840152602081019050610425565b505050509050019250505060405180910390f35b341561045f57600080fd5b610467610be2565b6040518080602001828103825283818151815260200191508051906020019060200280838360005b838110156104aa57808201518184015260208101905061048f565b505050509050019250505060405180910390f35b6000600160008373ffffffffffffffffffffffffffffffffffffffff1673ffffffffffffffffffffffffffffffffffffffff168152602001908152602001600020549050919050565b61050f610c44565b6000806000600360008773ffffffffffffffffffffffffffffffffffffffff1673ffffffffffffffffffffffffffffffffffffffff1681526020019081526020016000206000018581548110151561056357fe5b906000526020600020900190508060028260405180828054600181600116156101000203166002900480156105cf5780601f106105ad5761010080835404028352918201916105cf565b820191906000526020600020905b8154815290600101906020018083116105bb575b505091505090815260200160405180910390206000015460028360405180828054600181600116156101000203166002900480156106445780601f10610622576101008083540402835291820191610644565b820191906000526020600020905b815481529060010190602001808311610630575b5050915050908152602001604051809103902060010154828054600181600116156101000203166002900480601f0160208091040260200160405190810160405280929190818152602001828054600181600116156101000203166002900480156106f05780601f106106c5576101008083540402835291602001916106f0565b820191906000526020600020905b8154815290600101906020018083116106d357829003601f168201915b50505050509250935093509350509250925092565b60058181548110151561071457fe5b90600052602060002090016000915090505481565b600080600090505b60008054905081101561084757826040518082805190602001908083835b602083101515610774578051825260208201915060208101905060208303925061074f565b6001836020036101000a0380198251168184511680821785525050505050509050019150506040518091039020600019166000828154811015156107b457fe5b9060005260206000209001604051808280546001816001161561010002031660029004801561081a5780601f106107f857610100808354040283529182019161081a565b820191906000526020600020905b815481529060010190602001808311610806575b5050915050604051809103902060001916141561083a576000915061084c565b8080600101915050610731565b600191505b50919050565b6000600360008373ffffffffffffffffffffffffffffffffffffffff1673ffffffffffffffffffffffffffffffffffffffff168152602001908152602001600020600001805490509050919050565b6000806108ad85610729565b15156108b857600080fd5b600360003373ffffffffffffffffffffffffffffffffffffffff1673ffffffffffffffffffffffffffffffffffffffff168152602001908152602001600020600001805480600101828161090c9190610c58565b916000526020600020900160008790919091509080519060200190610932929190610c84565b5050600080548060010182816109489190610c58565b91600052602060002090016000879091909150908051906020019061096e929190610c84565b5050836002866040518082805190602001908083835b6020831015156109a95780518252602082019150602081019050602083039250610984565b6001836020036101000a03801982511681845116808217855250505050505090500191505090815260200160405180910390206000018160001916905550826002866040518082805190602001908083835b602083101515610a2057805182526020820191506020810190506020830392506109fb565b6001836020036101000a0380198251168184511680821785525050505050509050019150509081526020016040518091039020600101819055506002856040518082805190602001908083835b602083101515610a925780518252602082019150602081019050602083039250610a6d565b6001836020036101000a0380198251168184511680821785525050505050509050019150509081526020016040518091039020600001546002866040518082805190602001908083835b602083101515610b015780518252602082019150602081019050602083039250610adc565b6001836020036101000a03801982511681845116808217855250505050505090500191505090815260200160405180910390206001015491509150935093915050565b60016020528060005260406000206000915090505481565b600681815481101515610b6b57fe5b90600052602060002090016000915090505481565b610b88610d04565b6005805480602002602001604051908101604052809291908181526020018280548015610bd857602002820191906000526020600020905b81546000191681526020019060010190808311610bc0575b5050505050905090565b610bea610d04565b6006805480602002602001604051908101604052809291908181526020018280548015610c3a57602002820191906000526020600020905b81546000191681526020019060010190808311610c22575b5050505050905090565b602060405190810160405280600081525090565b815481835581811511610c7f57818360005260206000209182019101610c7e9190610d18565b5b505050565b828054600181600116156101000203166002900490600052602060002090601f016020900481019282601f10610cc557805160ff1916838001178555610cf3565b82800160010185558215610cf3579182015b82811115610cf2578251825591602001919060010190610cd7565b5b509050610d009190610d44565b5090565b602060405190810160405280600081525090565b610d4191905b80821115610d3d5760008181610d349190610d69565b50600101610d1e565b5090565b90565b610d6691905b80821115610d62576000816000905550600101610d4a565b5090565b90565b50805460018160011615610100020316600290046000825580601f10610d8f5750610dae565b601f016020900490600052602060002090810190610dad9190610d44565b5b505600a165627a7a723058207733814229a70863acf0161cddc677cea24eae7a2e95e5398ab953b2e7b27a5e0029",
  "source": "pragma solidity ^0.4.18; //We have to specify what version of the compiler this code will use\n\ncontract Store {\n\n  // We use the struct datatype to store the voter information.\n  struct Media {\n    bytes32 title;\n    uint price;\n    string[] audience;\n  }\n\n  struct Creator {\n    string[] mediaList;\n  }\n\n  struct Consumer {\n    bytes32[] Media;\n  }\n\n  string[] allmediaList;\n\n  mapping (address => uint) public wallets;\n  mapping (string => Media) mediaStructs;\n  mapping (address => Creator) creatorStructs;\n  mapping (address => Consumer) consumerStructs;\n  bytes32[] public creatorsList;\n  bytes32[] public consumersList;\n\n  /* When the contract is deployed on the blockchain, we will initialize\n   the total number of tokens for sale, cost per token and all the candidates\n   */\n  function Store(bytes32[] candidateNames1, bytes32[] candidateNames2) public {\n    creatorsList = candidateNames1;\n    consumersList = candidateNames2;\n  }\n\n/*\n  function buy(bytes32 code) payable public {\n    uint req_cost;\n    uint i;\n    bytes32 hashcode;\n    for(i = 0; i < creatorStructs[creatorAddress].mediaList.length; i++) {\n      hashcode = creatorStructs[creatorAddress].mediaList[i];\n      if (creatorStructs[creatorAddress].mediaStructs[hashcode].title == mname) {\n        req_cost = creatorStructs[creatorAddress].mediaStructs[hashcode].price;\n        break;\n      }\n    }\n    require(req_cost == cost);\n    creatorStructs[creatorAddress].mediaStructs[hashcode].audience.push(msg.sender);\n    wallets[creatorAddress] += cost;\n    // return wallets[creatorAddress];\n  }\n  */\n\n  function addMedia(string code, bytes32 mname, uint cost) view public returns (bytes32, uint) {\n    require(validCandidate(code));\n    creatorStructs[msg.sender].mediaList.push(code);\n    allmediaList.push(code);\n    mediaStructs[code].title = mname;\n    mediaStructs[code].price = cost;\n    return (mediaStructs[code].title, mediaStructs[code].price);\n  }\n\n  function allCreators() view public returns (bytes32[]) {\n    return creatorsList;\n  }\n\n  function allConsumers() view public returns (bytes32[]) {\n    return consumersList;\n  }\n\n  function getWallet(address creatorAddress) view public returns (uint) {\n    return wallets[creatorAddress];\n  }\n\n  function getMedia(address creatorAddress, uint index) view public returns (string, bytes32, uint) {\n    string url = creatorStructs[creatorAddress].mediaList[index];\n    return (url, mediaStructs[url].title, mediaStructs[url].price);\n  }\n\n  function getMediaCount(address creatorAddress) view public returns (uint) {\n    return creatorStructs[creatorAddress].mediaList.length;\n  }\n\n  function validCandidate(string code) view public returns (bool) {\n    for(uint i = 0; i < allmediaList.length; i++) {\n      if (sha3(allmediaList[i]) == sha3(code)){\n        return false;\n      }\n    }\n    return true;\n  }\n\n}\n",
  "sourcePath": "/Users/ashleyjain/self_study/github/mediaStore/contracts/Store.sol",
  "compiler": {
    "name": "solc",
    "version": "0.4.18+commit.9cf6e910.Emscripten.clang"
  },
  "schemaVersion": "1.0.1",
  "updatedAt": "2018-01-27T13:26:19.267Z"
}